:100000000C9493010C94C4010C94C4010C94C4018D
:100010000C94C4010C94C4010C94C4010C94C4014C
:100020000C94C4010C94C4010C94C4010C94C4013C
:100030000C94C4010C94C4010C94C4010C94C4012C
:100040000C94C4010C94C4010C94C4010C94C4011C
:100050000C94C4010C94C4010C94C4010C943A0A8D
:100060000C94C4010C94A1040C9477040C94C40166
:100070000C94C4010C94C4010C94C4010C94C401EC
:100080000C94C4010C94C4010C94C4010C94C401DC
:100090000C94C4010C94C4010C94C4010C94D704B6
:1000A0000C94C4010C94C4010C94C4010C94C401BC
:1000B0000C94C4010C94C4010C94C4010C94C401AC
:1000C0000C94C4010C94C4010C94C4010C94C4019C
:1000D0000C94C4010C94C4010C9441040C941704B6
:1000E0000C94C4013E0C410C300C340C380C780CD0
:1000F000450C490C4F0C530C570C5D0C610C650CF6
:10010000780C6B0C6F0C730CB50CBA0CBF0CC90CD3
:10011000D30C4C0DDD0CE50CED0CF70C010D0B0DAB
:100120001A0D240D4C0D2E0D380D420D084AD73BEB
:100130003BCE016E84BCBFFDC12F3D6C74319ABDB6
:1001400056833DDA3D00C77F11BED9E4BB4C3E91DA
:100150006BAAAABE000000803F000C94610C0C94B6
:100160005D0C0C94010D0C94380D0C94410C0C9406
:100170006B0C0C94C90C0C944F0C0C94450C0C9407
:10018000F0010C94570C0C9439030C94BA0C0C9499
:10019000420D0C9463020C94650C0C9465030C9452
:1001A000340C0C946F0C0C94FF010C9413020C94FF
:1001B00092030C94F70C0C943A030C94D5110C9404
:1001C000B0020C944C0D0C940B0D0C94300C0C9450
:1001D000D30C0C94B50C0C9421020C94ED0C0C94E3
:1001E000380C0C941A0D0C94240D0C94530C0C9494
:1001F000780C0C94490C0C94C6010C94E50C0C94EE
:1002000049030C94DD0C0C94BF0C0C94C2030C94A9
:10021000730C0C945D030C942E0D0C943E0C00009A
:100220000A0B02090C0D0E08070304010000000070
:1002300000000000000000000000000000000000BE
:10024000000000000000000000001211100000007B
:10025000000000000000000000000000000000009E
:100260000000000000002200250028002B002E00C6
:100270003100340002010000050108010B010000FB
:100280002100240027002A002D0030003300010146
:100290000000040107010A01050505050705080816
:1002A0000808020202020A0A080804040404010100
:1002B0000101010101010303030303030303040715
:1002C00007070C0C0C0C0C0C0C0C020202020606AC
:1002D0000606060606060B0B0B0B0B0B0B0B01029F
:1002E0001020200808102040102040800201020148
:1002F0000804020101020408102040808040201000
:100300000804020180040201804020100804020158
:1003100008040201010204081020408001020408C0
:1003200010204080D51111241FBECFEFD1E2DEBFD7
:10033000CDBF00E00CBF26E0A0E9B2E001C01D92F5
:10034000AC32B207E1F712E0A0E0B2E0E6E7F2E398
:1003500000E00BBF02C007900D92A039B107D9F79A
:1003600011E0C3E9D1E000E006C021970109802F28
:10037000FE010E94B414C239D10780E00807A9F732
:100380000E94E70D0C9439190C940000CF92DF9273
:10039000EF92FF920F931F93CF93DF936C017A013B
:1003A0008B01C0E0D0E0CE15DF0581F0D8016D9162
:1003B0008D01D601ED91FC910190F081E02DC601F7
:1003C0001995892B11F02196EECF7E01C701DF919F
:1003D000CF911F910F91FF90EF90DF90CF900895F4
:1003E000FC01538D448D252F30E0842F90E0821B3B
:1003F000930B541710F0CF96089501970895FC01C0
:10040000918D828D981761F0828DDF01A80FB11D4B
:100410005D968C91928D9F5F9F73928F90E008956F
:100420008FEF9FEF0895FC01918D828D981731F029
:10043000828DE80FF11D858D90E008958FEF9FEF7D
:100440000895FC01918D228D892F90E0805C9F4F53
:10045000821B91098F739927089583EF93E00E947F
:10046000210221E0892B09F420E0822F089580E900
:1004700094E00E94210221E0892B09F420E0822FE0
:100480000895FC01848DDF01A80FB11DA35ABF4F51
:100490002C91848D90E001968F739927848FA68983
:1004A000B7892C93A089B1898C91837080648C93D7
:1004B000938D848D981306C00288F389E02D808186
:1004C0008F7D80830895EF92FF920F931F93CF93B8
:1004D000DF93EC0181E0888F9B8D8C8D981305C094
:1004E000E889F989808185FD26C0F62E0B8D10E004
:1004F0000F5F1F4F0F731127E02E8C8DE8120CC079
:100500000FB607FCFACFE889F989808185FFF5CF1E
:10051000CE010E944102F1CF8B8DFE01E80FF11D4B
:10052000E35AFF4FF0829FB7F8940B8FEA89FB895B
:10053000808180620AC09FB7F894EE89FF8960834A
:10054000E889F98980818370806480839FBF81E01E
:1005500090E0DF91CF911F910F91FF90EF90089560
:10056000CF93DF93EC01888D8823C9F0EA89FB895A
:10057000808185FD05C0A889B9898C9186FD0FC051
:100580000FB607FCF5CF808185FFF2CFA889B98926
:100590008C9185FFEDCFCE010E944102E7CFDF9124
:1005A000CF91089580E090E0892B21F00E943702DE
:1005B000811121C080E090E0892B41F080E090E043
:1005C000892B21F00E940000811118C080E090E08A
:1005D000892B41F080E090E0892B21F00E940000FF
:1005E00081110FC080E090E0892B81F00E942D02E4
:1005F00081110AC008950E940000DCCF0E94000013
:10060000E5CF0E940000EECF0C940000089585ED28
:100610008093BC008091BC0084FDFCCF10921E032F
:1006200008954091FA02262F30E0240F311D213227
:100630003105DCF420911E032430C9F4FC0180E074
:1006400090E0861758F43091FA022191DC01A6520D
:10065000BD4FA30FB11D2C930196F3CF8091FA02E9
:10066000680F6093FA0280E0089581E0089582E0C7
:1006700008950895E091D9028091D802E81730F4E6
:10068000F0E0E854FD4F808190E008958FEF9FEFF8
:1006900008959091D9028091D802981750F4E92FCB
:1006A000F0E0E854FD4F208130E09F5F9093D90245
:1006B00002C02FEF3FEFC90108958091D80290E06A
:1006C0002091D902821B91090895CF92DF92EF9277
:1006D000FF920F931F93CF93DF937C01CB018A018D
:1006E0002091B702222389F0EB016B01C40ED51EC5
:1006F000CC15DD0569F06991D701ED91FC91019070
:10070000F081E02DC7011995F3CF642F0E941103EA
:10071000C801DF91CF911F910F91FF90EF90DF9073
:10072000CF900895CF93DF931F92CDB7DEB7698343
:100730002091B7022223D1F02091B602203240F05E
:1007400021E030E0FC013383228380E090E015C09B
:100750008091B502E82FF0E0EB56FD4F9981908330
:100760008F5F8093B5028093B60205C061E0CE0131
:1007700001960E94110381E090E00F90DF91CF91EC
:100780000895089580E090E008950F931F93CF930C
:10079000DF93EC0188819981009729F02A813B81C0
:1007A0002617370788F48B016F5F7F4F0E943F1831
:1007B000009761F0998388831B830A832C813D8194
:1007C000232B11F4FC01108281E001C080E0DF9155
:1007D000CF911F910F910895EF92FF920F931F9366
:1007E000CF93DF93EC017B018A01BA010E94C5031C
:1007F0002881398181110DC02115310519F0C901F8
:100800000E94B617198218821D821C821B821A82CE
:1008100006C01D830C83B701C9010E943219CE01A5
:10082000DF91CF911F910F91FF90EF9008951F924C
:100830000F920FB60F9211240BB60F922F933F9386
:100840004F935F936F937F938F939F93AF93BF93D8
:10085000EF93FF9383EF93E00E944102FF91EF91AA
:10086000BF91AF919F918F917F916F915F914F91C8
:100870003F912F910F900BBE0F900FBE0F901F90C6
:1008800018951F920F920FB60F9211240BB60F926C
:100890002F938F939F93EF93FF93E0910304F09135
:1008A00004048081E0910904F0910A0482FD12C0E1
:1008B000908180910C048F5F8F7320910D048217BB
:1008C00051F0E0910C04F0E0ED50FC4F958F8093D7
:1008D0000C0401C08081FF91EF919F918F912F9126
:1008E0000F900BBE0F900FBE0F901F9018951F9288
:1008F0000F920FB60F9211240BB60F922F933F93C6
:100900004F935F936F937F938F939F93AF93BF9317
:10091000EF93FF9380E994E00E944102FF91EF91F1
:10092000BF91AF919F918F917F916F915F914F9107
:100930003F912F910F900BBE0F900FBE0F901F9005
:1009400018951F920F920FB60F9211240BB60F92AB
:100950002F938F939F93EF93FF93E091A004F091D7
:10096000A1048081E091A604F091A70482FD12C049
:1009700090818091A9048F5F8F732091AA048217C0
:1009800051F0E091A904F0E0E057FB4F958F809380
:10099000A90401C08081FF91EF919F918F912F91C8
:1009A0000F900BBE0F900FBE0F901F9018951F92C7
:1009B0000F920FB60F9211240BB60F922F933F9305
:1009C0004F935F936F937F938F939F93AF93BF9357
:1009D000EF93FF938091B900887F803609F49CC023
:1009E00068F5883209F45BC090F4803109F454C092
:1009F00038F4882309F4F2C0883009F44DC0F2C0FD
:100A0000883109F44CC0803209F45DC0EBC08034F9
:100A100009F468C048F4803309F455C0883309F0FC
:100A2000E1C080931D03D4C0803509F44FC08835E0
:100A300009F45DC0883409F0D5C0D2C0883909F402
:100A4000C3C0A8F4883709F467C038F4883609F4BD
:100A500063C0803709F460C0C5C0883809F4B4C0E9
:100A6000803909F45FC0803809F0BCC05BC0803BAE
:100A700009F484C038F4803A09F466C0883A09F46D
:100A80007DC0B0C0803C09F4A3C0883C09F4A0C07C
:100A9000883B09F486C0A6C08091430310C09091A2
:100AA000420380914103981770F5E091420381E081
:100AB0008E0F80934203F0E0EF5DFC4F80818093C6
:100AC000BB0085EC82C080931D038AC0E091420385
:100AD00081E08E0F809342038091BB00F0E0EF5DD8
:100AE000FC4F808390914203809141036AC0E09162
:100AF000420381E08E0F809342038091BB00F0E0BF
:100B0000EF5DFC4F808380912003811169C081E0FB
:100B100080931F0384EA5DC083E080931E031092DC
:100B20001C03CFCF80911C03803208F04DC0E091B0
:100B30001C0381E08E0F80931C038091BB00F0E0CA
:100B4000E450FD4F8083BDCF85EC8093BC001092B4
:100B50001E0380911C03803230F4E0911C03F0E00E
:100B6000E450FD4F108260911C0370E08CEF92E026
:100B7000E0E0F0E0199510921C0334C084E080930B
:100B80001E031092FB021092FA02E0E0F0E01995C9
:100B90008091FA02811105C081E08093FA021092DF
:100BA000DA02E091FB0281E08E0F8093FB02F0E01D
:100BB000E652FD4F80818093BB009091FB028091B3
:100BC000FA02981708F47DCF85E88093BC000AC02C
:100BD00085EC8093BC0010921E0304C010921D038C
:100BE0000E940703FF91EF91BF91AF919F918F9169
:100BF0007F916F915F914F913F912F910F900BBE1D
:100C00000F900FBE0F901F9018950F931F93CF93C7
:100C1000DF938C016F3F710519F014F06FEF70E0F6
:100C2000EB0161307F4F14F4C1E0DFEFF801838105
:100C30009481C817D90709F440C0D483C3831C1614
:100C40001D068CF4818160E00E940F0C8FE090E023
:100C50000197F1F7F801808161E00E940F0CF80123
:100C60008281BE0124C0F8012097A1F0808160E05C
:100C70000E940F0C8FE090E00197F1F7F80181815D
:100C800061E00E940F0CF8018281662777276C1BB8
:100C90007D0B0DC0818160E00E940F0CF801808106
:100CA00060E00E940F0CF801828160E070E0DF914B
:100CB000CF911F910F910C948D0CDF91CF911F91CB
:100CC0000F9108954F925F926F927F928F929F92B1
:100CD000AF92BF92CF92DF92EF92FF921F93CF938A
:100CE000DF93CDB7DEB72A970FB6F894DEBF0FBEFD
:100CF000CDBF9A8789877C0182E4E80EF11CF70159
:100D0000108181E08093B702109390021092B50297
:100D10001092B6026BE38DE295E00E94920381305F
:100D200009F0D7C22091B602213208F048C0809164
:100D30001E038111FCCF92E090931E0310922003BA
:100D40009FEF90931D031092420320934103E5E926
:100D5000F2E0A1E2B3E090E0291721F031913D9358
:100D60009F5FFACF1092430390914303110F192B09
:100D70001093430390911F03913061F410921F036D
:100D8000909143039093BB009091BC0093FDF8CFEA
:100D900095EC01C095EE9093BC0090911E039230AB
:100DA000E1F390911D039F3F79F080911D03803204
:100DB00041F080911D03803331F483E005C081E070
:100DC00003C082E001C084E01092B5021092B60226
:100DD0001092B70281117DC2F701808190911E03AC
:100DE0009111FCCF91E090931E03909320032FEF7D
:100DF00020931D03109242032DE020934103909312
:100E0000430390914303880F892B80934303809180
:100E10001F03813061F410921F038091430380937C
:100E2000BB008091BC0083FDF8CF85EC01C085EE4E
:100E30008093BC0080911E038130E1F380914203D6
:100E40008E3018F41091420301C01EE0A1E2B3E01D
:100E5000E8EBF2E080E0811721F09D9191938F5FA4
:100E6000FACF1092D9021093D802C984DA84F4E33D
:100E7000CF0ED11CE12CF12C8091D902181779F0FA
:100E80008EE0E816F10481F0FFEFEF1AFF0A8DE221
:100E900095E00E944903F60181936F01EDCFFEE0DA
:100EA000EF16F10409F015C2E985FA85A4A8B5A8E2
:100EB000BA24AB24BA24B3A2A2A2E6A8F7A8FE24BF
:100EC000EF24FE24F5A2E4A280AC91AC98248924FE
:100ED000982497A286A2468057806084718464AD6E
:100EE00075AD762767277627072E000C880B990BA0
:100EF0000E947513E985FA8520A531A542A553A561
:100F00000E94BC14A30192010E949B15E985FA85F9
:100F1000668B778B808F918F66AD77AD762767274D
:100F20007627072E000C880B990B0E947513E98514
:100F3000FA8524A535A546A557A50E94BC14A30192
:100F400092010E949B15E985FA85628F738F848FC9
:100F5000958FE05CFF4F6081718176276727762748
:100F6000072E000C880B990B0E947513E985FA85F2
:100F700020A931A942A953A90E94BC14A30192013E
:100F80000E949B15E985FA85668F778F80A391A3D0
:100F9000B701FF0C880B990B0E9475136B017C0144
:100FA000B401990C880B990B0E9475139B01AC013D
:100FB0000E94D4132B013C01A7019601C701B60181
:100FC0000E94D413A30192010E94BD140E94CE1668
:100FD00069837A838B839C83B501BB0C880B990B47
:100FE0000E9475134B015C0129813A814B815C8120
:100FF0000E943C1520E030E044E353E40E94D41307
:101000002AED3FE049E450E40E949B1569837A830E
:101010008B839C83A5019401C501B4010E94D41364
:10102000A30192010E94BD140E94CE169B01AC0147
:10103000C701B6010E943C1520E030E044E353E4D0
:101040000E94D4132AED3FE049E450E40E949B152E
:101050006D837E838F8398872FB7F8948091EF03F9
:101060009091F003A091F103B091F2032FBFC090D3
:101070009102D0909202E0909302F0909402BC0111
:10108000CD016C197D098E099F090E94731320E020
:1010900030E04AE754E40E949B156B017C012FB7B6
:1010A000F8948091EF039091F003A091F103B09137
:1010B000F2032FBF8093910290939202A093930228
:1010C000B0939402E985FA8586A197A118161906AE
:1010D0006CF5E985FA85228D338D448D558DC701D8
:1010E000B6010E94D4139B01AC01E985FA856285A3
:1010F0007385848595850E94BC14E985FA8562878D
:1011000073878487958726893789408D518DC701DC
:10111000B6010E94D4139B01AC01E985FA8566856E
:101120007785808991890E94BD142CC0E985FA8554
:10113000228D338D448D558DC701B6010E94D41385
:101140009B01AC01E985FA85628573858485958567
:101150000E94BD14E985FA85628773878487958725
:1011600026893789408D518DC701B6010E94D4135D
:101170009B01AC01E985FA8566857785808991892F
:101180000E94BC14E985FA8566877787808B918BEE
:10119000E985FA85268D378D40A151A1C701B60199
:1011A0000E94D413E985FA852289338944895589B7
:1011B0000E94BD142B013C0120E030E044EB53E4DD
:1011C0000E949B150E943C1620E030E044EB53E463
:1011D0000E94D4139B01AC01C301B2010E94BC1454
:1011E0002B013C0120E030E044E353E40E94BB16B5
:1011F00018163CF0E985FA85428A538A648A758A12
:101200000EC020E030E044EB53E4C301B2010E9481
:10121000BC14E985FA85628B738B848B958B20E0F7
:1012200030E040E05FE3C701B6010E94BD149B01BE
:10123000AC0160E070E080E09FE30E949B156B01D1
:101240007C019B01AC0160E070E080E89FE30E94BC
:10125000BC144B015C01E985FA8522853385448500
:101260005585C701B6010E94D4132B013C01A5018D
:10127000940169817A818B819C810E94D4139B01A6
:10128000AC01C301B2010E94BD14E985FA856287F1
:101290007387848795872685378540895189C7015B
:1012A000B6010E94D4136B017C01A50194016D81EC
:1012B0007E818F8198850E94D4139B01AC01C70168
:1012C000B6010E94BD14E985FA8566877787808B11
:1012D000918B2A960FB6F894DEBF0FBECDBFDF917B
:1012E000CF911F91FF90EF90DF90CF90BF90AF9084
:1012F0009F908F907F906F905F904F900895E4E45F
:10130000F3E01192119283E0E83AF807D1F70895DB
:10131000CF93DF93EC017B876A8788279927861B09
:10132000970B9D878C871F861E86CE010E9405061F
:101330006C857D85CE010596DF91CF910C940506D5
:101340000F931F93CF93DF93EC0160E070E08881EF
:1013500099810E9488098F8198850E946206EF8199
:10136000F885668577858089918969877A878B87F3
:101370009C870E94F60A8E010E5F1F4F20E030E02E
:1013800040E85FEB69857A858B859C850E946E13AA
:1013900087FF1AC06CE97FEFC8010E9405066AE06A
:1013A00070E080E090E00E94550D8F8198850E944A
:1013B0006206EF81F88586859785A089B18989873E
:1013C0009A87AB87BC87DACF20E030E040E85FE364
:1013D00069857A858B859C850E94BB161816D4F486
:1013E00064E670E0C8010E9405066AE070E080E0F3
:1013F00090E00E94550D8F8198850E946206EF81D2
:10140000F88586859785A089B18989879A87AB8772
:10141000BC87DACF60E070E0C801DF91CF911F9107
:101420000F910C9405060E9424193FB7F8948091FF
:10143000EB039091EC03A091ED03B091EE0326B580
:10144000A89B05C02F3F19F00196A11DB11D3FBFFC
:10145000BA2FA92F982F8827820F911DA11DB11D8A
:10146000BC01CD0142E0660F771F881F991F4A9586
:10147000D1F708951F920F920FB60F9211242F9358
:101480003F938F939F93AF93BF938091EF0390917E
:10149000F003A091F103B091F2033091EA0323E04D
:1014A000230F2D3720F40196A11DB11D05C026E89C
:1014B000230F0296A11DB11D2093EA038093EF0331
:1014C0009093F003A093F103B093F2038091EB03A8
:1014D0009091EC03A091ED03B091EE030196A11D54
:1014E000B11D8093EB039093EC03A093ED03B093B5
:1014F000EE03BF91AF919F918F913F912F910F90EC
:101500000FBE0F901F90189590E0FC01E252FD4F26
:101510002491FC01E856FD4F8491882399F090E0D6
:10152000880F991FFC01E258FD4FA591B491FC0171
:10153000EC59FD4F859194918FB7F894EC91E22B83
:10154000EC938FBF0895009769F0FC010190002093
:10155000E9F73197AF01481B590BBC0180E994E0D2
:101560000C94C60180E090E008958F929F92AF9214
:10157000BF920F931F93CF93DF93CDB7DEB7A197A1
:101580000FB6F894DEBF0FBECDBF19A2423008F4EB
:101590004AE08E010F5D1F4F842E912CA12CB12C9F
:1015A000A50194010E949214E62FB901CA010150CD
:1015B0001109EA3014F4E05D01C0E95CD801EC9354
:1015C000232B242B252B61F7C8010E94A30AA19687
:1015D0000FB6F894DEBF0FBECDBFDF91CF911F9144
:1015E0000F91BF90AF909F908F9008954F925F9210
:1015F0006F927F928F929F92AF92BF92CF92DF9223
:10160000EF92FF926B017C019B01AC010E941217CB
:10161000882319F084E892E01AC046015701E89443
:10162000B7F82FEF3FEF4FE75FE7C501B4010E9426
:101630001217811110C02FEF3FEF4FE75FE7C50191
:10164000B4010E946E13181634F488E892E00E94E8
:10165000A30A7C0183C02FEF3FEF4FE75FE4C70190
:10166000B6010E94BB1618161CF48CE892E0EFCF6E
:101670002FEF3FEF4FE75FECC701B6010E946E13FB
:1016800087FDF3CF20E030E0A901C701B6010E9439
:101690006E1387FF0BC06DE280E994E00E94630245
:1016A0005C01F7FAF094F7F8F09402C0A12CB12C89
:1016B0002AE037ED43EA5BE3C701B6010E94BD149F
:1016C0002B013C010E940D166B017C010E947313DB
:1016D0009B01AC01C301B2010E94BC142B013C016F
:1016E0004AE0C701B6010E94B50A7C01EA0CFB1C66
:1016F0006EE280E994E00E946302E80EF91E20E0A9
:1017000030E040E251E4C301B2010E94D4132B0146
:101710003C010E940D164B01A12CB12C4AE0C501E1
:10172000B4010E94B50AE80EF91EC501B4010E9479
:1017300073139B01AC01C301B2010E94BC1420E0F1
:1017400030E040E251E40E94D4130E940D1680E084
:1017500090E04AE00E94B50AE80EF91E85E692E0A4
:101760000E94A30A8E0D9F1DFF90EF90DF90CF90F7
:10177000BF90AF909F908F907F906F905F904F90B1
:101780000895CF93DF930E94A30AEC0185E692E0CF
:101790000E94A30A8C0F9D1FDF91CF9108952FB750
:1017A000F8948091EF039091F003A091F103B09130
:1017B000F2032FBF8093FB039093FC03A093FD03E0
:1017C000B093FE0383EF93E00E94FF0197FF26C0D2
:1017D0002FB7F8948091EF039091F003A091F1035B
:1017E000B091F2032FBF4091FB035091FC03609135
:1017F000FD037091FE03841B950BA60BB70B409164
:10180000F7035091F8036091F9037091FA0384177C
:101810009507A607B707B0F28FEF9FEF0895362F11
:1018200090E0FC01E25EFD4F4491FC01E252FD4F6D
:101830002491FC01E856FD4F9491992309F46CC062
:10184000442309F455C050E0FA013197E231F10523
:1018500008F04EC08827EE58FF4F8F4F0C94B414F9
:10186000809180008F7707C0809180008F7D03C0BA
:1018700080918000877F809380003AC084B58F7705
:1018800002C084B58F7D84BD33C08091B0008F7756
:1018900003C08091B0008F7D8093B00029C08091FB
:1018A00090008F7707C0809190008F7D03C080915A
:1018B0009000877F809390001BC08091A0008F775D
:1018C00007C08091A0008F7D03C08091A000877F1A
:1018D0008093A0000DC0809120018F7707C0809178
:1018E00020018F7D03C080912001877F809320019C
:1018F000E92FF0E0EE0FFF1FEC59FD4FA591B491D9
:101900009FB7F894311104C08C912095282302C010
:10191000EC912E2B2C939FBF08951F93CF93DF93B1
:10192000182FEB010E94840A209711F460E004C094
:10193000CF3FD10539F461E0812FDF91CF911F9125
:101940000C940F0CE12FF0E0E25EFD4FE4918E2F3E
:1019500090E0FC013197E231F10508F09DC0882745
:10196000EC57FF4F8F4F0C94B41484B5806884BD3E
:10197000C7BD97C084B5806284BDC8BD92C0809148
:101980008000806880938000D0938900C093880095
:1019900088C080918000806280938000D0938B000B
:1019A000C0938A007EC08091800088608093800010
:1019B000D0938D00C0938C0074C08091B00080687B
:1019C0008093B000C093B3006CC08091B00080627F
:1019D0008093B000C093B40064C080919000806890
:1019E00080939000D0939900C09398005AC0809142
:1019F0009000806280939000D0939B00C0939A00E7
:101A000050C080919000886080939000D0939D009A
:101A1000C0939C0046C08091A00080688093A00085
:101A20008091A0008F7B8093A000D093A900C093E9
:101A3000A80037C08091A00080628093A000D0935E
:101A4000AB00C093AA002DC08091A0008860809355
:101A5000A000D093AD00C093AC0023C080912001C2
:101A6000806880932001D0932901C093280119C078
:101A700080912001806280932001D0932B01C0933C
:101A80002A010FC080912001886080932001D093AB
:101A90002D01C0932C0105C0C038D1050CF04BCFEF
:101AA00045CFDF91CF911F9108958F929F92AF9272
:101AB000BF92CF92DF92EF92FF926B017C010E9466
:101AC000150A4B015C01C114D104E104F104F1F0E9
:101AD0000E94150ADC01CB0188199909AA09BB09E2
:101AE000883E9340A105B10570F321E0C21AD108E8
:101AF000E108F10888EE880E83E0981EA11CB11C55
:101B0000C114D104E104F10419F7DDCFFF90EF9087
:101B1000DF90CF90BF90AF909F908F900895CF931C
:101B2000DF93EC0170E0FB01EE0FFF1FDF01A60F5A
:101B3000B71FAA5FBD4F12968C9195EF980F923008
:101B400038F481E0809380008BE0809381002CC08A
:101B500097EF980F923038F483E08093B00084E0E0
:101B60008093B10021C0853021F09EEF980F923014
:101B700038F481E0809390008BE08093910014C052
:101B80009AEF980F933038F481E08093A0008BE0B7
:101B90008093A10009C08C52833030F481E080939F
:101BA00020018BE0809321016E0F7F1FFB01EA5F14
:101BB000FD4F808188838181898382818A838881A6
:101BC0000E94840A8981DF91CF910C94840ACF937B
:101BD000DF93CDB7DEB72C970FB6F894DEBF0FBEFC
:101BE000CDBF789484B5826084BD84B5816084BDA6
:101BF00085B5826085BD85B5816085BD80916E00AB
:101C0000816080936E0010928100809181008260DB
:101C10008093810080918100816080938100809118
:101C200080008160809380008091B1008460809307
:101C3000B1008091B00081608093B00080919100EC
:101C400082608093910080919100816080939100E7
:101C5000809190008160809390008091A1008260CB
:101C60008093A1008091A10081608093A100809168
:101C7000A00081608093A000809121018260809308
:101C800021018091210181608093210180912001B7
:101C900081608093200180917A00846080937A0033
:101CA00080917A00826080937A0080917A008160CE
:101CB00080937A0080917A00806880937A001092F5
:101CC000C100E0910304F091040422E02083E0913C
:101CD000FF03F09100041082E0910104F0910204EE
:101CE00080E1808310920B04E0910704F0910804D6
:101CF00096E09083E0910504F09106048081806174
:101D00008083E0910504F0910604808188608083DF
:101D1000E0910504F0910604808180688083E09161
:101D20000504F091060480818F7D8083E091A004FA
:101D3000F091A1042083E0919C04F0919D04108215
:101D4000E0919E04F0919F048FEC80831092A80490
:101D5000E091A404F091A5049083E091A204F09195
:101D6000A304808180618083E091A204F091A304A8
:101D7000808188608083E091A204F091A304808137
:101D800080688083E091A204F091A30480818F7D1C
:101D90008083B8ED2B2E33243A9483EF93E00E9496
:101DA0002102892B09F4F4C084E592E00E94C10B62
:101DB00018861F821A8619861C861B8640E050E012
:101DC00067E672E0CE0107960E94EC030E94CF0BFB
:101DD00097FD1BC089831A820B851C850F5F1F4FDF
:101DE000B801CE0107960E94C503882379F32F819D
:101DF00038858B859C85BE016F5F7F4F820F931F57
:101E00000E9432191C870B87E1CF4B855C856F815F
:101E1000788580E994E00E94C60185E692E00E9400
:101E2000A30A8F8198850097A9F00E94321362302F
:101E300071058105910519F41092E90308C061301C
:101E400071058105910531F481E08093E9030E94D9
:101E50007F099AC00E947F09E1E0F0E0F093E80377
:101E6000E093E703412CA12CB12CC12CD12C042DE3
:101E700010E08B859C8548010817190708F07CC085
:101E80008F819885009709F475C0FC01E00FF11F60
:101E900080818F3209F06EC00C151D0510F086018F
:101EA00064011A8219821C821B821E821D8240E0FC
:101EB00050E067E672E0CE0101960E94EC03EB84ED
:101EC000FC840E151F0580F5CE14DF0408F476019E
:101ED000EF81F885EE0DFF1DD08010826F8178852F
:101EE000600F711F6115710569F0FB010190002001
:101EF000E9F73197AF01461B570BCE0101960E94BF
:101F0000EC030CC089819A81009711F00E94B617EA
:101F10001A8219821E821D821C821B828F819885E3
:101F2000FC01EE0DFF1DD08209811A8101151105FA
:101F300021F0C8010E94321303C060E070E0CB01C1
:101F4000F501EE0FFF1FEC5BFC4F71836083C8014E
:101F50000E94B6176401FFEFCF1ADF0A8FEFA81AAD
:101F6000B80A8091E7039091E80301969093E80303
:101F70008093E70343947BCF1092E6031092E5032E
:101F800088E692E00E94C10B8F8198850E94B61767
:101F90001092E4038091E903813009F449C1823051
:101FA00009F0E2C1E091E503F091E603EE0FFF1FB7
:101FB000EC5BFC4F808191818330910509F44EC028
:101FC000049709F035C180914105909142050E9426
:101FD000A0096AE070E080E090E00E94550D60E0AA
:101FE00070E080913B0590913C050E9488098091AA
:101FF000390590913A050E94620680E994E00E94BA
:10200000FF01E0913905F0913A05C288D388E48850
:10201000F58846015701B7FAB094B7F8B094C501F6
:10202000B4010E94F60A60E070E084EB92E40E9442
:10203000F60A00913B0510913C0588E290E0F8011A
:102040009787868768E270E0C8010E94050668E20B
:1020500070E0C80105960E940506A8C08091410560
:10206000909142050E94A0096AE070E080E090E053
:102070000E94550D60E070E080913B0590913C0519
:102080000E9488098091390590913A050E94620664
:1020900080E994E00E94FF01E0913905F0913A0552
:1020A000C288D388E488F588C701B6010E94F60A81
:1020B00060E070E084EB92E40E94F60A00913B0538
:1020C00010913C05F8013786268668ED7FEFC80140
:1020D0000E94050668ED7FEFC80105960E9405067F
:1020E00064E670E080E090E00E94550D8091390533
:1020F00090913A050E946206E0913905F0913A0507
:1021000082889388A488B58820E030E044EB52E4CC
:10211000C701B6010E94BB161816E4F420E030E0B7
:1021200044EB52E4C501B4010E94BC144B015C01B4
:1021300020E030E0A9010E946E13A701960187FFFD
:102140000BC060E070E084E393E40E94BC14A5013E
:10215000940104C0A7019601C501B4010E94BC14FA
:102160004B015C010E94F60A20E030E044EB52E4AF
:10217000C501B4010E946E1387FDB2CFF1E0F09368
:10218000E40356C0A7019601C301B2010E94BD1429
:102190002B013C010E94F60A20E030E044EB52E4BF
:1021A000C301B2010E946E1387FFE8CF64E670E0BE
:1021B00080E090E00E94550D8091390590913A059C
:1021C0000E946206E0913905F0913A0542885388F1
:1021D0006488758820E030E044EB52E4C501B40126
:1021E0000E94BB161816ECF4C301B201905820E00F
:1021F00030E044EB52E40E94BC142B013C0120E08F
:1022000030E0A9010E946E1387FFBCCF20E030E0D0
:1022100044E353E4C701B6010E94BD14A301920137
:1022200004C0A3019201C701B6010E94BC14B0CF43
:10223000E091E503F091E603EE0FFF1FEC5BFC4F2E
:10224000808191818531910509F45CC01CF444972B
:1022500091F08AC08631910509F470C0C29709F0E7
:1022600083C060E070E085E495E00E948809E1E0C9
:10227000E093E40379C08CE792E00E94C10B809167
:10228000E5039091E60301969093E6038093E503BE
:10229000880F991FFC01EC5BFC4FC080D1800D2C96
:1022A000000CEE08FF08F7FE0EC06DE280E994E036
:1022B0000E94630266277727CB016C197D098E097E
:1022C0009F094AE003C04AE0C701B6010E94B50A6F
:1022D00085E692E00E94A30AE091E503F091E6030F
:1022E000EE0FFF1FEC5BFC4F6081718185E495E090
:1022F0000E94880991E09093E40364E670E080E036
:1023000090E019C0E3EDFFEFF0935405E09353051F
:1023100063ED7FEF85E495E00E94050663ED7FEFB6
:102320008AE495E00E940506F1E0F093E40368EC8E
:1023300070E080E090E00E94550D16C08DE290E0C4
:1023400090935405809353056DE270E085E495E029
:102350000E9405066DE270E08AE495E00E940506A1
:1023600091E09093E403E3CF8091E4038823A1F00C
:102370008091E5039091E60301969093E6038093A4
:10238000E503880F991FFC01EC5BFC4F8081918174
:10239000892B11F40E947F096AE070E080E090E0F0
:1023A0000E94550D0E94D202F8CCEF92FF921F932B
:1023B000CF93DF93CDB7DEB7E7970FB6F894DEBFC4
:1023C0000FBECDBFE3EFF3E01382128288EE93E0FD
:1023D000A0E0B0E084839583A683B78324E332E052
:1023E0003183208345E351E05587448744E351E03E
:1023F0005787468740E351E0518B408B41E351E0E2
:10240000538B428B42E351E0558B448B46E351E0C2
:10241000578B468B118E128E138E148EE0E9F4E0EA
:102420001382128284839583A683B78331832083AA
:1024300025EC30E03587248724EC30E03787268789
:1024400020EC30E0318B208B21EC30E0338B228B81
:1024500022EC30E0358B248B26EC30E0378B268B5A
:10246000118E128E138E148EEDE2F5E0138212821D
:1024700084839583A683B78386E492E091838083E7
:10248000EAE1F6E08CE380838DE3818314E012833C
:102490006AE085E196E00E948F0D69E080E196E0B8
:1024A0000E948F0D6BE08BE096E00E948F0DE5E0BF
:1024B000F6E080E1808381E1818385E08283E4EF3F
:1024C000F5E080E4808381E4818387E0828388E390
:1024D0008483E3EEF5E093E4908392E4918398E0C3
:1024E0009283848320EA35E08EE3F90180838FE3D1
:1024F000818386E0828388E68093E20585E0E5E1DA
:10250000F6E0DE01999601900D928A95E1F785E05B
:10251000E0E1F6E0DE019E9601900D928A95E1F7EA
:1025200085E0FE01B996A5E4B5E001900D928A958B
:10253000E1F785E0FE01BE96AAE4B5E001900D92B8
:102540008A95E1F746E955E0FA011082118212827C
:102550001382148215821682178285E495E0918792
:10256000808761E1E3EEF5E0DE01119601900D92C6
:102570006A95E1F761E1FE013196A5E8B5E00190C9
:102580000D926A95E1F761E1E4EFF5E0DE01529624
:1025900001900D926A95E1F761E1FE017296AFE656
:1025A000B5E001900D926A95E1F76EE6E62E65E0E2
:1025B000F62EF701938B828B65E0EBE0F6E0DE010F
:1025C000D39601900D926A95E1F761E060938000E7
:1025D0006BE06093810063E06093B0001093B10002
:1025E00065E0FE01F396A3E6B5E001900D926A95D1
:1025F000E1F761E675E0FB013087278391838083F3
:1026000016E0E5E0F6E0DE01939601900D921A9552
:10261000E1F716E0FE01B396A9E5B5E001900D9251
:102620001A95E1F7A5E5B5E01B969C938E931A9752
:10263000E9E3F5E03183208393838283B583A48328
:102640005783468371876087F386E286E7960FB6E5
:10265000F894DEBF0FBECDBFDF91CF911F91FF90E9
:10266000EF9008951F93FC0199278827BC01E894F7
:1026700011911032E9F3193010F01E30C8F31B32FB
:1026800051F01D3249F4689406C00E945913610F3D
:10269000711D811D911D119110531A30B0F33EF43C
:1026A00090958095709561957F4F8F4F9F4F1F91AB
:1026B0000895592F482F372F262F660F771F881F11
:1026C000991F660F771F881F991F620F731F841F42
:1026D000951F660F771F881F991F08950E94B013DA
:1026E00008F481E00895E89409C097FB3EF49095C2
:1026F0008095709561957F4F8F4F9F4F9923A9F0DB
:10270000F92F96E9BB279395F69587957795679569
:10271000B795F111F8CFFAF4BB0F11F460FF1BC0AD
:102720006F5F7F4F8F4F9F4F16C0882311F096E940
:1027300011C0772321F09EE8872F762F05C06623EE
:1027400071F096E8862F70E060E02AF09A95660FA7
:10275000771F881FDAF7880F9695879597F9089560
:10276000990F0008550FAA0BE0E8FEEF16161706A2
:10277000E807F907C0F012161306E407F50798F00A
:10278000621B730B840B950B39F40A2661F0232B23
:10279000242B252B21F408950A2609F4A140A6959F
:1027A0008FEF811D811D08950E94E7130C9458142A
:1027B0000E944A1438F00E94511420F0952311F021
:1027C0000C9441140C94471411240C948C140E9402
:1027D000691470F3959FC1F3950F50E0551F629FE8
:1027E000F001729FBB27F00DB11D639FAA27F00D6A
:1027F000B11DAA1F649F6627B00DA11D661F829F91
:102800002227B00DA11D621F739FB00DA11D621F75
:10281000839FA00D611D221F749F3327A00D611D92
:10282000231F849F600D211D822F762F6A2F112474
:102830009F5750409AF0F1F088234AF0EE0FFF1FA7
:10284000BB1F661F771F881F91505040A9F79E3FFE
:10285000510580F00C9441140C948C145F3FE4F308
:10286000983ED4F3869577956795B795F795E79554
:102870009F5FC1F7FE2B880F911D9695879597F95D
:10288000089597F99F6780E870E060E008959FEFF2
:1028900080EC089500240A941616170618060906F7
:1028A000089500240A9412161306140605060895C6
:1028B000092E0394000C11F4882352F0BB0F40F44E
:1028C000BF2B11F460FF04C06F5F7F4F8F4F9F4F8E
:1028D000089557FD9058440F551F59F05F3F71F010
:1028E0004795880F97FB991F61F09F3F79F0879577
:1028F0000895121613061406551FF2CF4695F1DF00
:1029000008C0161617061806991FF1CF869571058F
:10291000610508940895E894BB2766277727CB01C3
:1029200097F90895A1E21A2EAA1BBB1BFD010DC049
:10293000AA1FBB1FEE1FFF1FA217B307E407F5076F
:1029400020F0A21BB30BE40BF50B661F771F881F4B
:10295000991F1A9469F760957095809590959B01E1
:10296000AC01BD01CF010895EE0FFF1F881F8BBF83
:102970000790F691E02D19945058BB27AA270E9482
:10298000D4140C9458140E944A1438F00E94511424
:1029900020F039F49F3F19F426F40C9447140EF4F8
:1029A000E095E7FB0C944114E92F0E94691458F359
:1029B000BA17620773078407950720F079F4A6F524
:1029C0000C948B140EF4E0950B2EBA2FA02D0B0156
:1029D000B90190010C01CA01A0011124FF27591B64
:1029E00099F0593F50F4503E68F11A16F040A22F6A
:1029F000232F342F4427585FF3CF469537952795DB
:102A0000A795F0405395C9F77EF41F16BA0B620BD9
:102A1000730B840BBAF09150A1F0FF0FBB1F661F20
:102A2000771F881FC2F70EC0BA0F621F731F841F63
:102A300048F4879577956795B795F7959E3F08F089
:102A4000B0CF9395880F08F09927EE0F979587954B
:102A500008950E944A1460F080E891E009F49EEF26
:102A60000E94511428F040E851E071F45EEF0CC070
:102A70000C9447140C948B14E92FE0780E9469148D
:102A800040F3092E052AB1F32617370748075907DF
:102A900038F00E2E07F8E02569F0E025E0640AC062
:102AA000EF6307F8009407FADB01B9019D01DC012F
:102AB000CA01AD01EF930E94B2150E9458140E9402
:102AC0006C155F91552339F02BED3FE049E450FD43
:102AD00049EC0C94BD140895DF93DD27B92FBF771F
:102AE00040E85FE31616170648075B0718F4D92F6E
:102AF0000E94C0169F938F937F936F930E940E172F
:102B0000ECE2F1E00E947C160E9458142F913F9154
:102B10004F915F910E94E713DD2351F09058A2EA94
:102B20002AED3FE049EC5FE3D0785D270E94D414A2
:102B3000DF910C9458140E94AF150C9458140E9405
:102B4000511458F00E944A1440F029F45F3F29F0D4
:102B50000C94411451110C948C140C9447140E9441
:102B6000691468F39923B1F3552391F3951B550B21
:102B7000BB27AA2762177307840738F09F5F5F4F50
:102B8000220F331F441FAA1FA9F335D00E2E3AF08F
:102B9000E0E832D091505040E695001CCAF72BD0A7
:102BA000FE2F29D0660F771F881FBB1F26173707F8
:102BB0004807AB07B0E809F0BB0B802DBF01FF272A
:102BC00093585F4F3AF09E3F510578F00C944114B2
:102BD0000C948C145F3FE4F3983ED4F3869577957C
:102BE0006795B795F7959F5FC9F7880F911D9695E3
:102BF000879597F90895E1E0660F771F881FBB1F3F
:102C0000621773078407BA0720F0621B730B840BEB
:102C1000BA0BEE1F88F7E09508950E94711488F0B2
:102C20009F5798F0B92F9927B751B0F0E1F0660F90
:102C3000771F881F991F1AF0BA95C9F714C0B130D1
:102C400091F00E948B14B1E008950C948B14672FBF
:102C5000782F8827B85F39F0B93FCCF38695779500
:102C60006795B395D9F73EF49095809570956195E9
:102C70007F4F8F4F9F4F08950E94A31690F09F376C
:102C800048F4911116F00C948C1460E070E080E828
:102C90009FEB089526F41B16611D711D811D0C9478
:102CA00053160C946E16882371F4772321F09850F4
:102CB000872B762F07C0662311F499270DC09051FA
:102CC000862B70E060E02AF09A95660F771F881FC8
:102CD000DAF7880F9695879597F908959F3F31F019
:102CE000915020F4879577956795B795880F911D3A
:102CF0009695879597F90895DF93CF931F930F9338
:102D0000FF92EF92DF927B018C01689406C0DA2E6D
:102D1000EF010E94E713FE01E894A59125913591FA
:102D200045915591A6F3EF010E94D414FE0197013D
:102D3000A801DA9469F7DF90EF90FF900F911F914F
:102D4000CF91DF9108950E947114A0F0BEE7B917EA
:102D500088F4BB279F3860F41616B11D672F782FB3
:102D60008827985FF7CF869577956795B11D9395DE
:102D70009639C8F308950E94B01308F48FEF0895B0
:102D80009B01AC0160E070E080E89FE30C949B1530
:102D900019F416F40C9447140C946E160E947114D6
:102DA000B8F39923C9F3B6F39F57550B87FF0E94D9
:102DB00017170024A0E640EA900180585695979591
:102DC00028F4805C660F771F881F20F026173707CE
:102DD000480730F4621B730B840B202931294A2BDE
:102DE000A69517940794202531254A2758F7660F92
:102DF000771F881F20F026173707480730F4620B2B
:102E0000730B840B200D311D411DA09581F7B90175
:102E1000842F9158880F9695879508959B01AC0152
:102E20000C94D4130E94B013880B990B0895915001
:102E30005040660F771F881FD2F708950F931F9396
:102E4000CF93DF938230910510F482E090E0E0911F
:102E50002A06F0912B0620E030E0A0E0B0E03097A9
:102E600019F1408151810281138148175907C8F037
:102E70008417950769F4109731F012960C93129706
:102E800013961C9327C000932A0610932B0622C08A
:102E90002115310519F04217530718F49A01BD01A5
:102EA000EF01DF01F801DBCF21153105F9F0281B17
:102EB000390B2430310580F48A819B8161157105BD
:102EC00021F0FB019383828304C090932B068093AF
:102ED0002A06FE01329644C0FE01E20FF31F8193E1
:102EE000919322503109398328833AC020912806D2
:102EF00030912906232B41F42091020230910302E4
:102F00003093290620932806209100023091010277
:102F10002115310541F42DB73EB74091040250917F
:102F20000502241B350BE0912806F0912906E217D3
:102F3000F307A0F42E1B3F0B2817390778F0AC01DC
:102F40004E5F5F4F2417350748F04E0F5F1F5093B9
:102F50002906409328068193919302C0E0E0F0E0B7
:102F6000CF01DF91CF911F910F910895CF93DF9300
:102F7000009709F481C0FC01329713821282A0915C
:102F80002A06B0912B06109781F420813181820F9F
:102F9000931F20912806309129062817390751F5EB
:102FA000F0932906E093280667C0ED0120E030E0A9
:102FB000CE17DF0740F44A815B819E014115510520
:102FC000F1F0EA01F5CFD383C28340815181840FB0
:102FD000951FC817D90759F488819981840F951FC7
:102FE0000296918380838A819B81938382832115BA
:102FF000310529F4F0932B06E0932A063DC0E90140
:10300000FB83EA8349915991C40FD51FEC17FD0743
:1030100061F480819181840F951F0296E901998363
:103020008883828193819B838A83E0E0F0E012961B
:103030008D919C911397009719F0FD01DC01F7CF5A
:103040008D919C9111979D012E5F3F4F820F931F91
:1030500020912806309129062817390769F43097FE
:1030600029F410922B0610922A0602C013821282B3
:10307000B0932906A0932806DF91CF9108956F920F
:103080007F928F929F92AF92BF92CF92DF92EF92F8
:10309000FF920F931F93CF93DF93009789F4CB0197
:1030A000DF91CF911F910F91FF90EF90DF90CF9024
:1030B000BF90AF909F908F907F906F900C941E1751
:1030C000FC01E60FF71F9C0122503109E217F307BC
:1030D00008F4A9C0EC01D9010D911C9111970617B4
:1030E0001707B0F00530110508F49BC0C80104971C
:1030F0008617970708F495C002501109061B170B95
:10310000019311936D937C93CF010E94B61789C0F0
:103110005B01A01AB10A4C01800E911EA0912A06F3
:10312000B0912B06612C712CE12CF12C109709F435
:1031300046C08D919C911197A815B905B1F56C0108
:1031400042E0C40ED11CCA14DB0478F14C018A1889
:103150009B08640142E0C40ED11C1296BC901297E9
:103160001396AC91B5E0CB16D10440F0B282A383A4
:1031700091828082D9016D937C9309C00E5F1F4FAD
:10318000800F911FF90191838083EB2DFA2FE114B9
:10319000F10431F0D7011396FC93EE93129741C0DE
:1031A000F0932B06E0932A063CC06816790608F4D3
:1031B0003C017D0112960D90BC91A02DB7CF80915E
:1031C00028069091290688169906E1F46616770676
:1031D000C8F48091000290910102009741F48DB7EC
:1031E0009EB74091040250910502841B950BE8178D
:1031F000F907C8F4F0932906E0932806F9017183D2
:1032000060830FC0CB010E941E177C01009759F00C
:10321000A801BE010E942919CE010E94B617C7015C
:1032200004C0CE0102C080E090E0DF91CF911F91F9
:103230000F91FF90EF90DF90CF90BF90AF909F9055
:103240008F907F906F90089581E090E0F8940C94B7
:103250003919FB01DC0102C001900D924150504030
:10326000D8F70895FB01DC0101900D920020E1F7F1
:063270000895F894FFCF61
:1032760000002C06200000000021200B2829072F23
:10328600300639380400000000000000000000008D
:103296000023220C2425082A2B093B3A05000000AE
:1032A600000000006302C601F001B0022102FF0126
:1032B60013020000000092036503C20339035D0395
:1032C60049033A03646F6E6EC3A96573207265C3C2
:1032D600A7756573000D0A007472616974656D6582
:1032E6006E74207465726D696EC3A900666F72771D
:1032F600617264006E616E00696E66006F766600CC
:00000001FF
