:100000000C94A4010C94D5010C94D5010C94D50149
:100010000C94D5010C94D5010C94D5010C94D50108
:100020000C94D5010C94D5010C94D5010C94D501F8
:100030000C94D5010C94D5010C94D5010C94D501E8
:100040000C94D5010C94D5010C94D5010C94D501D8
:100050000C94D5010C94D5010C94D5010C94CF0FC0
:100060000C94D5010C94A3100C9479100C94D50128
:100070000C94D5010C94D5010C94D5010C94D501A8
:100080000C94D5010C94D5010C94D5010C94D50198
:100090000C94D5010C94D5010C94D5010C949B03C0
:1000A0000C94D5010C94D5010C94D5010C94D50178
:1000B0000C94D5010C94D5010C94D5010C94D50168
:1000C0000C94D5010C94D5010C94D5010C94D50158
:1000D0000C94D5010C94D5010C9443100C94191078
:1000E0000C94D501D30AD60AC50AC90ACF0A0D0B4A
:1000F000DA0ADE0AE40AE80AEC0AF20AF60AFA0A5E
:100100000D0B000B040B080B2B0E300E350E3F0EA3
:10011000490EC20E530E5B0E630E6D0E770E810EEE
:10012000900E9A0EC20EA40EAE0EB80E084AD73B21
:100130003BCE016E84BCBFFDC12F3D6C74319ABDB6
:1001400056833DDA3D00C77F11BED9E4BB4C3E91DA
:100150006BAAAABE000000803F000C9492020C948F
:10016000EB010C94EC0A0C94DE0A0C940D0B0C942D
:10017000350E0C946D0E0C94AE0E0C94C90A0C94B2
:100180002B0E0C946D020C94F7020C94D60A0C946E
:10019000080B0C94E80A0C94C50A0C94530E0C94AA
:1001A000F9010C946C020C94040B0C94AD0F0C949C
:1001B0005B0E0C946E020C94E40A0C94D7010C9420
:1001C000490E0C943B0F0C943F0E0C94DA0A0C94DD
:1001D000770E0C94600F0C94630E0C94810E0C94AB
:1001E0009A0E0C94D30A0C94A40E0C94000B0C944D
:1001F000CF0A0C94C20E0C949A020C94C7020C9471
:10020000110F0C94F20A0C94300E0C94B80E0C944E
:100210006F020C94F60A0C947E020C9478110C94E4
:10022000900E0C94FA0A00002100240027002A00F6
:100230002D003000330001010000040107010A0114
:1002400000002200250028002B002E003100340081
:1002500002010000050108010B010000200023003D
:10026000260029002C002F003200000100000301AD
:100270000601090105050505070508080808020229
:1002800002020A0A08080404040401010101010130
:1002900001010303030303030303040707070C0C13
:1002A0000C0C0C0C0C0C02020202060606060606DA
:1002B00006060B0B0B0B0B0B0B0B0102102020087F
:1002C00008102040102040800201020108040201B1
:1002D0000102040810204080804020100804020120
:1002E0008004020180402010080402010804020179
:1002F0000102040810204080010204081020408000
:1003000000000A0B02090C0D0E080703040100008F
:1003100000000000000000000000000000000000DD
:10032000000000000000000000000000121110009A
:1003300000000000000000000000000000000000BD
:10034000000000000000781111241FBECFEFD1E2A1
:10035000DEBFCDBF00E00CBF12E0A0E0B2E0EAEAF1
:10036000F7E300E00BBF02C007900D92A837B1077A
:10037000D9F725E0A8E7B2E001C01D92AF36B20779
:10038000E1F711E0C4EAD1E000E006C021970109DD
:10039000802FFE010E943918C33AD10780E0080778
:1003A000A9F70E94D7120C94D31B0C940000FC01F7
:1003B000918D828D981761F0828DDF01A80FB11D9C
:1003C0005D968C91928D9F5F9F73928F90E00895C0
:1003D0008FEF9FEF0895FC01918D828D981731F07A
:1003E000828DE80FF11D858D90E008958FEF9FEFCE
:1003F0000895FC01918D228D892F90E0805C9F4FA4
:10040000821B91098F739927089580E090E0892BD2
:1004100021F00E94560F811121C080E090E0892BCD
:1004200041F080E090E0892B21F00E9400008111D2
:1004300018C080E090E0892B41F080E090E0892BAB
:1004400021F00E94000081110FC080E090E0892B14
:1004500081F00E944C0F81110AC008950E94000093
:10046000DCCF0E940000E5CF0E940000EECF0C948C
:100470000000089585ED8093BC008091BC0084FD50
:10048000FCCF10923703089540919C02262F30E054
:10049000240F311D21323105DCF420913703243043
:1004A000C9F4FC0180E090E0861758F430919C027A
:1004B0002191DC01A458BD4FA30FB11D2C930196CF
:1004C000F3CF80919C02680F60939C0280E00895B6
:1004D00081E0089582E00895089508950895E091D7
:1004E000CC028091CB02E81730F4F0E0EF50FD4FE2
:1004F000808190E008958FEF9FEF08959091CC0256
:100500008091CB02981750F4E92FF0E0EF50FD4FA7
:10051000208130E09F5F9093CC0202C02FEF3FEF2D
:10052000C90108958091CB0290E02091CC02821BFA
:1005300091090895CF92DF92EF92FF920F931F934C
:10054000CF93DF937C01CB018A012091CD0222233E
:1005500089F0EB016B01C40ED51ECC15DD0569F0E9
:100560006991D701ED91FC910190F081E02DC701D7
:100570001995F3CF642F0E944402C801DF91CF91F7
:100580001F910F91FF90EF90DF90CF900895CF9340
:10059000DF931F92CDB7DEB769832091CD0222236E
:1005A000D1F02091F002203240F021E030E0FC0157
:1005B0003383228380E090E015C08091CE02E82F43
:1005C000F0E0E153FD4F998190838F5F8093CE02DD
:1005D0008093F00205C061E0CE0101960E944402C2
:1005E00081E090E00F90DF91CF910895089580E031
:1005F00090E00895CF93DF931F92CDB7DEB7498384
:10060000FC01848191E09093CD028093EF021092DF
:10061000CE021092F00282E794E00E94C70281307D
:1006200069F441E050E0BE016F5F7F4F82E794E0E4
:100630000E949A0281E00E94950B01C08FEF0F90FB
:10064000DF91CF910895EF92FF920F931F93CF9375
:10065000DF938C01F42ED52FC22FFC01848191E011
:100660009093CD028093EF021092CE021092F0028E
:1006700082E794E00E94C702813001F580E00E9489
:10068000950B81112FC06C2FC13208F060E2F80188
:1006900084810E94530B1092CC028093CB020F2DC9
:1006A0001D2FE12CF12CD0E09091CB028091CC0257
:1006B000981731F0EC16FD0654F002C08FEF12C00F
:1006C00081E0CE15DF0509F480E081950BC0FFEFD6
:1006D000EF1AFF0A82E794E00E947E02F8018193FC
:1006E0008F01E2CFDF91CF911F910F91FF90EF909B
:1006F0000895FC01848DDF01A80FB11DA35ABF4FDF
:100700002C91848D90E001968F739927848FA68910
:10071000B7892C93A089B1898C91837080648C9364
:10072000938D848D981306C00288F389E02D808113
:100730008F7D808308951F920F920FB60F92112420
:100740000BB60F922F933F934F935F936F937F93CB
:100750008F939F93AF93BF93EF93FF938091B900D3
:10076000887F803609F49CC068F5883209F45BC044
:1007700090F4803109F454C038F4882309F4F6C0A9
:10078000883009F44DC0F6C0883109F44CC080327D
:1007900009F45DC0EFC0803409F468C048F48033C8
:1007A00009F455C0883309F0E5C080933503D8C0FB
:1007B000803509F44FC0883509F45DC0883409F0EC
:1007C000D9C0D6C0883909F4C7C0A8F4883709F45D
:1007D00067C038F4883609F463C0803709F460C014
:1007E000C9C0883809F4B8C0803909F45FC08038BE
:1007F00009F0C0C05BC0803B09F486C038F4803A81
:1008000009F466C0883A09F47FC0B4C0803C09F49A
:10081000A7C0883C09F4A4C0883B09F48AC0AAC0D8
:100820008091320310C09091340380913303981764
:1008300070F5E091340381E08E0F80933403F0E093
:10084000EF5EFC4F80818093BB0085EC86C0809377
:1008500035038EC0E091340381E08E0F8093340322
:100860008091BB00F0E0EF5EFC4F808390913403F9
:10087000809133036EC0E091340381E08E0F80934A
:1008800034038091BB00F0E0EF5EFC4F80838091E9
:10089000360381116DC081E08093310384EA61C029
:1008A00083E0809337031092BE02CFCF8091BE02C7
:1008B000803208F051C0E091BE0281E08E0F80933B
:1008C000BE028091BB00F0E0E256FD4F8083BDCFB9
:1008D00085EC8093BC00109237038091BE02803279
:1008E00030F4E091BE02F0E0E256FD4F10826091DC
:1008F000BE0270E0E091C702F091C8028EE992E07A
:1009000019951092BE0236C084E08093370310928E
:100910009D0210929C02E091C902F091CA021995C1
:1009200080919C02811105C081E080939C0210920D
:100930007C02E0919D0281E08E0F80939D02F0E0A9
:10094000E458FD4F80818093BB0090919D0280917F
:100950009C02981708F479CF85E88093BC000AC000
:1009600085EC8093BC001092370304C010923503CD
:100970000E943A02FF91EF91BF91AF919F918F91A9
:100980007F916F915F914F913F912F910F900BBE8F
:100990000F900FBE0F901F9018951F93CF93DF936A
:1009A000EC01162F61E089810E94C60D612F8981BB
:1009B000DF91CF911F910C94650D4F925F926F92D2
:1009C0007F928F929F92AF92BF92CF92DF92EF92DF
:1009D000FF920F931F93CF93DF93CDB7DEB7289786
:1009E0000FB6F894DEBF0FBECDBF5C0160E00E9481
:1009F000CD0461E0D5018C910E94C60D61E0F50146
:100A000080810E94650D0E94940D40EC60E470E0CE
:100A1000C5010E94FA0240E061E470E0C5010E9455
:100A2000FA0240E162E470E0C5010E94FA0242E08D
:100A300064E470E0C5010E94FA0240E060E670E004
:100A4000C5010E94FA0241E061E670E0C5010E9422
:100A5000FA02198221E08E010F5F1F4FA80162E99F
:100A6000C5010E9423038981803E09F0A3C060EA8A
:100A700070E080E090E00E94CB0E88E0D8011D92EB
:100A80008A95E9F728E0A80160E5C5010E942303E3
:100A900089819A81F501928781878B819C819487D6
:100AA00083878D819E81968785878F819885908B9E
:100AB000878761E0C5010E94CD04D50119960D918B
:100AC0001C911A97C801895C91091B96ED90FC90C6
:100AD0001C971D96CD90DC901E978336910568F487
:100AE000C7018B5F91098336910560F4B8EECB1690
:100AF000B3E0DB0608F448C105C0003BE4E01E0794
:100B000008F0E2C0F4EAEF16F6E0FF0608F0DCC0F9
:100B100020EBC21624E0D20608F0D6C0C016D106DB
:100B200008F04AC0E016F10608F44AC05801AE0CBD
:100B3000BF1CAC0CBD1C4601880C991C8DE2A8168C
:100B400081E0B806F0F0B70180E090E00E94CD1996
:100B50002B013C01B80180E090E00E94CD1920E01B
:100B600030E040EC5FE30E940B1B9B01AC01C30132
:100B7000B2010E94FE1A181624F48E149F0408F481
:100B800009C18E149F0440F48016910628F4A9E749
:100B9000AA16B10408F0FAC00139114058F0E5E492
:100BA000EE16E2E0FE0630F0F1E4CF16F1E0DF06EB
:100BB00008F0F2C089E000C1E016F10608F0EEC0CE
:100BC000CE14DF0460F50E0D1F1D0C0D1D1D0D3D17
:100BD000110580F3B70180E090E00E94CD194B0130
:100BE0005C01B60180E090E00E94CD192AE939E964
:100BF00049E150E40E940B1B6B017C019B01AC019D
:100C0000C501B4010E94201987FDC2C0A701960149
:100C1000C501B4010E94FE1A87FFBAC0CBCF0C15E4
:100C20001D0508F4C3C0E016F106E0F1C016D106B8
:100C3000C8F1C8018E0D9F1D8C0D9D1D81399140FD
:100C400008F4B8CFB70180E090E00E94CD194B01C5
:100C50005C01B80180E090E00E94CD192DEC3CECE5
:100C60004CE050E40E940B1B9B01AC01C501B40198
:100C70000E94FE1A18160CF099C0B60180E090E0B0
:100C80000E94CD192DEC3CEC4CE050E40E940B1B73
:100C90009B01AC01C501B4010E94FE1A18160CF0AC
:100CA00085C078C0C8018C0D9D1DE816F90608F0B6
:100CB00081CF0E0D1F1DC00ED11E8DEBC81682E018
:100CC000D80608F477CF68C0EC14FD0420F40C15A6
:100CD0001D0508F46BC0E016F10620F4CE14DF0405
:100CE00008F456C0D5011F96ED91FC915097C801AC
:100CF000BF010E94E417462F362FC701BF010E9493
:100D0000E417262FC601BF010E94E417493028F0DE
:100D1000253000F56230D0F43BC0433008F048C0C5
:100D2000253018F4633008F445CF2B3010F06530CF
:100D300088F1353078F4253010F46B30B8F5343064
:100D400071F0283080F0683088F509C04B3010F021
:100D50006530F0F0273038F0673040F504C02A30B5
:100D600010F0663018F54650433028F42630A0F0D5
:100D7000623090F40BC0393078F0393069F02830A7
:100D800058F4623048F404C08BE016C084E014C00C
:100D900082E012C085E010C080E00EC0CE14DF04F7
:100DA00008F447CF0C151D0508F043CF87E004C0B9
:100DB000463008F4BACFCECF28960FB6F894DEBFEF
:100DC0000FBECDBFDF91CF911F910F91FF90EF909C
:100DD000DF90CF90BF90AF909F908F907F906F905B
:100DE0005F904F9008950F931F93CF93DF938C01E3
:100DF0006F3F710519F014F06FEF70E0EB01613097
:100E00007F4F14F4C1E0DFEFF80183819481C817AC
:100E1000D90709F440C0D483C3831C161D068CF483
:100E2000818160E00E94650D8FE090E00197F1F70D
:100E3000F801808161E00E94650DF8018281BE01A8
:100E400024C0F8012097A1F0808160E00E94650D28
:100E50008FE090E00197F1F7F801818161E00E9455
:100E6000650DF8018281662777276C1B7D0B0DC00D
:100E7000818160E00E94650DF801808160E00E9440
:100E8000650DF801828160E070E0DF91CF911F91E4
:100E90000F910C94020EDF91CF911F910F91089545
:100EA000EF92FF920F931F93CF93DF93F42ED52FE2
:100EB000C22F8C010E5B1F4FF801808191E090934F
:100EC000CD028093EF021092CE021092F00282E7E0
:100ED00094E00E94C702813001F580E00E94950BEA
:100EE00081112FC06C2FC13208F060E2F8018081BF
:100EF0000E94530B1092CC028093CB020F2D1D2F1A
:100F0000E12CF12CD0E09091CB028091CC0298178B
:100F100031F0EC16FD0654F002C08FEF12C081E0F4
:100F2000CE15DF0509F480E081950BC0FFEFEF1AC5
:100F3000FF0A82E794E00E947E02F80181938F010C
:100F4000E2CFDF91CF911F910F91FF90EF90089525
:100F50002F923F924F925F926F927F928F929F92C9
:100F6000AF92BF92CF92DF92EF92FF92CF93DF9337
:100F7000CDB7DEB72A970FB6F894DEBF0FBECDBF50
:100F80009A878987AC014C5C5F4F2EE06BE30E942F
:100F900050078111FFC1E985FA8564A875A87624F8
:100FA0006724762473A262A2E6A8F7A8FE24EF24A1
:100FB000FE24F5A2E4A2A0ACB1ACBA24AB24BA24BE
:100FC000B7A2A6A2268037804084518464AD75AD57
:100FD000762767277627072E000C880B990B0E942F
:100FE000CF19E985FA8520A531A542A553A50E9410
:100FF0004118A20191010E942519E985FA85668BA5
:10100000778B808F918F66AD77AD762767277627B0
:10101000072E000C880B990B0E94CF19E985FA85E1
:1010200024A535A546A557A50E944118A201910106
:101030000E942519E985FA85628F738F848F958FB9
:10104000E05CFF4F60817181762767277627072E46
:10105000000C880B990B0E94CF19E985FA8520A90D
:1010600031A942A953A90E944118A20191010E94ED
:101070002519E985FA85668F778F80A391A3B7013B
:10108000FF0C880B990B0E94CF196B017C01B501F5
:10109000BB0C880B990B0E94CF199B01AC010E94DD
:1010A0000B1B4B015C01A7019601C701B6010E9411
:1010B0000B1BA50194010E9442180E947E1B6983AC
:1010C0007A838B839C83B301770C880B990B0E94E6
:1010D000CF192B013C0129813A814B815C810E940F
:1010E000C11820E030E044E353E40E940B1B2AEDDA
:1010F0003FE049E450E40E94251969837A838B8399
:101100009C83A3019201C301B2010E940B1BA501A4
:1011100094010E9442180E947E1B9B01AC01C701F2
:10112000B6010E94C11820E030E044E353E40E947D
:101130000B1B2AED3FE049E450E40E9425196D8322
:101140007E838F8398870E94050FC0907802D0908D
:101150007902E0907A02F0907B026C197D098E0989
:101160009F090E94CD1920E030E04AE754E40E9434
:1011700025196B017C010E94050F60937802709322
:10118000790280937A0290937B02E985FA8586A1A1
:1011900097A1181619065CF5228D338D448D558D57
:1011A000C701B6010E940B1B9B01AC01E985FA85C2
:1011B00062857385848595850E944118E985FA8545
:1011C000628773878487958726893789408D518DFB
:1011D000C701B6010E940B1B9B01AC01E985FA8592
:1011E00066857785808991890E9442182CC0E9859F
:1011F000FA85228D338D448D558DC701B6010E942D
:101200000B1B9B01AC01E985FA856285738584859A
:1012100095850E944218E985FA85628773878487DD
:10122000958726893789408D518DC701B6010E9467
:101230000B1B9B01AC01E985FA8566857785808962
:1012400091890E944118E985FA8566877787808BA6
:10125000918BE985FA85268D378D40A151A1C70173
:10126000B6010E940B1BE985FA85228933894489DE
:1012700055890E9442182B013C0120E030E044EBEC
:1012800053E40E9425190E940A1A20E030E044EB42
:1012900053E40E940B1B9B01AC01C301B2010E94ED
:1012A00041182B013C0120E030E044E353E40E946C
:1012B000FE1A18163CF0E985FA85428A538A648A38
:1012C000758A0EC020E030E044EB53E4C301B20164
:1012D0000E944118E985FA85628B738B848B958B0C
:1012E00020E030E040E05FE3C701B6010E94421811
:1012F0009B01AC0160E070E080E09FE30E94251953
:101300006B017C019B01AC0160E070E080E89FE331
:101310000E9441184B015C01E985FA8522853385DD
:1013200044855585C701B6010E940B1B2B013C016A
:10133000A501940169817A818B819C810E940B1B9C
:101340009B01AC01C301B2010E944218E985FA85F4
:101350006287738784879587268537854089518979
:10136000C701B6010E940B1B6B017C01A501940112
:101370006D817E818F8198850E940B1B9B01AC0142
:10138000C701B6010E944218E985FA85668777870A
:10139000808B918B2A960FB6F894DEBF0FBECDBF1F
:1013A000DF91CF91FF90EF90DF90CF90BF90AF9003
:1013B0009F908F907F906F905F904F903F902F9075
:1013C0000895CF93DF93EC017B876A87882799275D
:1013D000861B970B9D878C871F861E86CE010E94D9
:1013E000F3066C857D85CE010596DF91CF910C9437
:1013F000F306DF92EF92FF920F931F93CF93DF9349
:10140000EC018C010F5F1F4FC8010E94DD0488832F
:101410001C8ADD24D3948C89811149C08881823053
:1014200051F1853041F14AE065E070E080E090E004
:101430000E94F10B8EE492E00E94330B8CE592E067
:101440000E94450B68E270E08A899B890E94E1094D
:101450006EE170E080E090E00E94CB0E60E070E012
:101460008A899B890E94E109C8010E94DD04888362
:101470000E94040DD3CFDC8A8AE0E82EF12CC8014B
:101480000E94DD0488830E94040D8881823019F057
:10149000853009F01C8A81E0E81AF10881F781E5BE
:1014A00092E00E94450B88810E94040DB4CF888190
:1014B00090E0DF91CF911F910F91FF90EF90DF901F
:1014C00008950F931F93CF93DF93EC0160E070E0DA
:1014D000888199810E94E1098F8198850E94A807DF
:1014E00085ED93E00E94D701EF81F8858685978589
:1014F000A089B18989879A87AB87BC878AE592E002
:101500000E94450B8E010E5F1F4F20E030E040EF40
:1015100051EC69857A858B859C850E94FE1A181688
:10152000F4F46EE170E0C8010E94F30664E670E036
:1015300080E090E00E94CB0E8F8198850E94A807E2
:1015400085ED93E00E94D701EF81F8858685978528
:10155000A089B18989879A87AB87BC87D6CF60E09D
:1015600070E0C801DF91CF911F910F910C94F306A9
:1015700090E0FC013197E231F10508F04EC0882778
:10158000EE58FF4F8F4F0C943918809180008F7761
:1015900003C0809180008F7D8093800008958091AA
:1015A0008000877FF9CF84B58F7702C084B58F7DA7
:1015B00084BD08958091B0008F7703C08091B00002
:1015C0008F7D8093B0000895809190008F7707C041
:1015D000809190008F7D03C080919000877F8093E1
:1015E000900008958091A0008F7707C08091A0009F
:1015F0008F7D03C08091A000877F8093A000089515
:10160000809120018F7707C0809120018F7D03C0DA
:1016100080912001877F8093200108953FB7F8943F
:101620008091C3029091C402A091C502B091C602FC
:1016300026B5A89B05C02F3F19F00196A11DB11D2D
:101640003FBFBA2FA92F982F8827820F911DA11D68
:10165000B11DBC01CD0142E0660F771F881F991FA5
:101660004A95D1F70895009769F0FC010190002098
:10167000E9F73197AF01481B590BBC0185ED93E0A9
:101680000C94110F80E090E00895CF93DF930E94B7
:10169000330BEC018EE492E00E94330B8C0F9D1F04
:1016A000DF91CF910895909137039111FCCF91E094
:1016B00090933703909336032FEF209335031092C6
:1016C0003403260F20933303909332039091320317
:1016D000880F892B8093320380913103813061F42C
:1016E00010923103809132038093BB008091BC0043
:1016F00083FDF8CF85EC01C085EE8093BC0080911E
:1017000037038130E1F380913403861710F4609140
:101710003403A1E1B3E0E1EFF2E080E0861721F0CD
:101720009D9191938F5FFACF0895282F3091F00209
:10173000313208F04AC0809137038111FCCF90917B
:10174000EF0242E040933703209336032FEF2093BC
:1017500035031092340330933303EFECF2E0A1E150
:10176000B3E020E0321721F041914D932F5FFACF83
:101770001092320320913203990F922B90933203EF
:1017800090913103913061F41092310390913203C2
:101790009093BB009091BC0093FDF8CF95EC01C0F5
:1017A00095EE9093BC00909137039230E1F39091C5
:1017B00035039F3F79F080913503803241F080916D
:1017C0003503803331F084E005C081E003C082E05E
:1017D00001C083E01092CE021092F0021092CD026E
:1017E00008958F929F92AF92BF920F931F93CF93C2
:1017F000DF93CDB7DEB7A1970FB6F894DEBF0FBE6B
:10180000CDBF19A2423008F44AE08E010F5D1F4F90
:10181000842E912CA12CB12CA50194010E94F817C3
:10182000E62FB901CA0101501109EA3014F4E05D54
:1018300001C0E95CD801EC93232B242B252B61F705
:10184000C8010E94330BA1960FB6F894DEBF0FBEFD
:10185000CDBFDF91CF911F910F91BF90AF909F901F
:101860008F9008958F929F92AF92BF92CF92DF9206
:10187000EF92FF920F931F93CF93DF936B017C0145
:10188000142F9B01AC010E94C21B882319F08FE525
:1018900092E027C046015701E894B7F82FEF3FEFD9
:1018A0004FE75FE7C501B4010E94C21B81110DC063
:1018B0002FEF3FEF4FE75FE7C501B4010E9420190A
:1018C00018161CF483E692E00CC02FEF3FEF4FE7B1
:1018D0005FE4C701B6010E94FE1A181684F487E679
:1018E00092E0DF91CF911F910F91FF90EF90DF90E9
:1018F000CF90BF90AF909F908F900C94330B2FEFB1
:101900003FEF4FE75FECC701B6010E94201987FD4A
:10191000E6CF20E030E0A901C701B6010E942019FE
:1019200087FF0BC06DE285ED93E00E94600FEC0134
:10193000F7FAF094F7F8F09402C0C0E0D0E000E0CD
:1019400060E070E080E09FE3101741F020E030E0BD
:1019500040E251E40E9425190F5FF6CFA7019601DE
:101960000E9442186B017C010E949E194B015C0190
:101970004AE00E94F10BC80FD91F1123B9F1C5012C
:10198000B4010E94CD199B01AC01C701B6010E94B0
:1019900041186B017C016EE285ED93E00E94600FBF
:1019A000C80FD91F20E030E040E251E4C701B60182
:1019B0000E940B1B4B015C010E949E196B01E12CE4
:1019C000F12C4AE0C701B6010E94F10BC80FD91FE4
:1019D000C701B6010E94CD199B01AC01C501B4013C
:1019E0000E9441186B017C011150E1F6CE01DF919C
:1019F000CF911F910F91FF90EF90DF90CF90BF900C
:101A0000AF909F908F900895CF93DF93682F70E0F1
:101A100080E090E04AE00E94F10BEC018EE492E05D
:101A20000E94330B8C0F9D1FDF91CF910895CF93B0
:101A3000DF93EB019091D90421E02093CD029093A4
:101A4000EF021092CE021092F002682F82E794E02B
:101A50000E94C702813061F441E050E0BE0182E79C
:101A600094E00E949A0281E0DF91CF910C94950B53
:101A70008FEFDF91CF910895CF93DF93282F30E040
:101A8000F901E050FD4F8491F901E654FD4FD491E6
:101A9000F901EC58FD4FC491CC2391F081110E94C3
:101AA000B80AEC2FF0E0EE0FFF1FE65AFD4FA591AC
:101AB000B491EC91ED2381E090E021F480E002C04C
:101AC00080E090E0DF91CF9108951F93CF93DF9353
:101AD000282F30E0F901E050FD4F8491F901E654E0
:101AE000FD4FD491F901EC58FD4FC491CC23C1F0C6
:101AF000162F81110E94B80AEC2FF0E0EE0FFF1FA5
:101B0000E05CFD4FA591B4919FB7F894111104C00A
:101B10008C91D095D82302C0EC91DE2BDC939FBF33
:101B2000DF91CF911F9108951092CC021092CB02B9
:101B30001092CE021092F0021092370381E080934F
:101B400036031092310361E084E10E94650D61E08B
:101B500085E10E94650DE9EBF0E080818E7F808356
:101B600080818D7F808388E48093B80085E48093B2
:101B7000BC008CE692E09093CA028093C9028DE685
:101B800092E09093C8028093C7020895CF93DF93A9
:101B900090E0FC01E654FD4F2491FC01EC58FD4F10
:101BA0008491882361F190E0880F991FFC01EA5D20
:101BB000FD4FC591D491FC01E05CFD4FA591B4911E
:101BC000611109C09FB7F89488812095822388838A
:101BD000EC912E230BC0623061F49FB7F89488819A
:101BE000322F309583238883EC912E2B2C939FBF2B
:101BF00006C08FB7F894E8812E2B28838FBFDF9122
:101C0000CF9108951F93CF93DF93182FEB0161E0DD
:101C10000E94C60D209711F460E004C0CF3FD105AB
:101C200039F461E0812FDF91CF911F910C94650D04
:101C3000E12FF0E0E050FD4FE4918E2F90E0FC01A9
:101C40003197E231F10508F09DC08827EC57FF4F2E
:101C50008F4F0C94391884B5806884BDC7BD97C078
:101C600084B5806284BDC8BD92C0809180008068C8
:101C700080938000D0938900C093880088C08091B1
:101C80008000806280938000D0938B00C0938A0094
:101C90007EC080918000886080938000D0938D000A
:101CA000C0938C0074C08091B00080688093B000B5
:101CB000C093B3006CC08091B00080628093B0008C
:101CC000C093B40064C080919000806880939000BD
:101CD000D0939900C09398005AC080919000806280
:101CE00080939000D0939B00C0939A0050C0809145
:101CF0009000886080939000D0939D00C0939C00DA
:101D000046C08091A00080688093A0008091A000D0
:101D10008F7B8093A000D093A900C093A80037C008
:101D20008091A00080628093A000D093AB00C0930C
:101D3000AA002DC08091A00088608093A000D0935D
:101D4000AD00C093AC0023C08091200180688093D7
:101D50002001D0932901C093280119C0809120014E
:101D6000806280932001D0932B01C0932A010FC081
:101D700080912001886080932001D0932D01C09331
:101D80002C0105C0C038D1050CF04BCF45CFDF91F9
:101D9000CF911F9108958F929F92AF92BF92CF9251
:101DA000DF92EF92FF926B017C010E940E0B4B01C0
:101DB0005C01C114D104E104F104F1F00E940E0BA6
:101DC000DC01CB0188199909AA09BB09883E934017
:101DD000A105B10570F321E0C21AD108E108F108AC
:101DE00088EE880E83E0981EA11CB11CC114D1049A
:101DF000E104F10419F7DDCFFF90EF90DF90CF9071
:101E0000BF90AF909F908F9008952FB7F8946091F6
:101E1000BF027091C0028091C1029091C2022FBF97
:101E20000895CF92DF92EF92FF920F931F93CF937B
:101E3000DF936C017A018B01C0E0D0E0CE15DF05A5
:101E400081F0D8016D918D01D601ED91FC91019049
:101E5000F081E02DC6011995892B11F02196EECF66
:101E60007E01C701DF91CF911F910F91FF90EF90FD
:101E7000DF90CF900895FC01538D448D252F30E0E5
:101E8000842F90E0821B930B541710F0CF96089587
:101E9000019708950E94CE1B88E393E00E94F90108
:101EA00021E0892B09F420E0822F089585ED93E04D
:101EB0000E94F90121E0892B09F420E0822F089586
:101EC000EF92FF920F931F93CF93DF93EC0181E08A
:101ED000888F9B8D8C8D981305C0E889F989808146
:101EE00085FD26C0F62E0B8D10E00F5F1F4F0F7380
:101EF0001127E02E8C8DE8120CC00FB607FCFACF2C
:101F0000E889F989808185FFF5CFCE010E947903A8
:101F1000F1CF8B8DFE01E80FF11DE35AFF4FF082E8
:101F20009FB7F8940B8FEA89FB89808180620AC091
:101F30009FB7F894EE89FF896083E889F9898081E9
:101F40008370806480839FBF81E090E0DF91CF91B8
:101F50001F910F91FF90EF900895CF93DF93EC01C5
:101F6000888D8823C9F0EA89FB89808185FD05C0B9
:101F7000A889B9898C9186FD0FC00FB607FCF5CFF3
:101F8000808185FFF2CFA889B9898C9185FFEDCF3B
:101F9000CE010E947903E7CFDF91CF9108951F9280
:101FA0000F920FB60F9211242F933F938F939F930D
:101FB000AF93BF938091BF029091C002A091C102E4
:101FC000B091C20230916E0523E0230F2D3720F42B
:101FD0000196A11DB11D05C026E8230F0296A11D83
:101FE000B11D20936E058093BF029093C002A09311
:101FF000C102B093C2028091C3029091C402A09129
:10200000C502B091C6020196A11DB11D8093C30205
:102010009093C402A093C502B093C602BF91AF9142
:102020009F918F913F912F910F900FBE0F901F9016
:1020300018951F920F920FB60F9211240BB60F92A4
:102040002F933F934F935F936F937F938F939F93C0
:10205000AF93BF93EF93FF9388E393E00E947903DC
:10206000FF91EF91BF91AF919F918F917F916F9170
:102070005F914F913F912F910F900BBE0F900FBE2C
:102080000F901F9018951F920F920FB60F92112468
:102090000BB60F922F938F939F93EF93FF93E09143
:1020A0004803F09149038081E0914E03F0914F0382
:1020B00082FD12C09081809151038F5F8F732091B8
:1020C0005203821751F0E0915103F0E0E85CFC4FBD
:1020D000958F8093510301C08081FF91EF919F9173
:1020E0008F912F910F900BBE0F900FBE0F901F90EE
:1020F00018951F920F920FB60F9211240BB60F92E4
:102100002F933F934F935F936F937F938F939F93FF
:10211000AF93BF93EF93FF9385ED93E00E94790314
:10212000FF91EF91BF91AF919F918F917F916F91AF
:102130005F914F913F912F910F900BBE0F900FBE6B
:102140000F901F9018951F920F920FB60F921124A7
:102150000BB60F922F938F939F93EF93FF93E09182
:10216000E503F091E6038081E091EB03F091EC034D
:1021700082FD12C090818091EE038F5F8F7320915A
:10218000EF03821751F0E091EE03F0E0EB52FC4FC9
:10219000958F8093EE0301C08081FF91EF919F9115
:1021A0008F912F910F900BBE0F900FBE0F901F902D
:1021B0001895CF92DF92EF92FF920F931F93E82F23
:1021C000F92F05C0015011092109310961F19081F0
:1021D00096239417B9F305C001501109210931095B
:1021E00011F1908196239413F7CFC12CD12CE12CBF
:1021F000F12C0AC08FEFC81AD80AE80AF80A0C15A1
:102200001D052E053F0579F080818623841791F303
:102210006C2D7D2D8E2D9F2D1F910F91FF90EF9096
:10222000DF90CF90089560E070E080E090E01F9133
:102230000F91FF90EF90DF90CF900895CF93DF93B1
:10224000EC0170E0FB01EE0FFF1FDF01A60FB71FCF
:10225000A050BE4F12968C9195EF980F923038F4A3
:1022600081E0809380008BE0809381002CC097EF09
:10227000980F923038F483E08093B00084E080932C
:10228000B10021C0853021F09EEF980F923038F4D4
:1022900081E0809390008BE08093910014C09AEFCE
:1022A000980F933038F481E08093A0008BE0809306
:1022B000A10009C08C52833030F481E0809320016A
:1022C0008BE0809321016E0F7F1FFB01E050FE4FDA
:1022D000808188838181898382818A83888161E08A
:1022E0000E94C60D898161E0DF91CF910C94C60DEB
:1022F000FF920F931F93CF93DF93CDB7DEB7E7978E
:102300000FB6F894DEBF0FBECDBFE8E3F3E0138253
:10231000128288EE93E0A0E0B0E084839583A683E8
:10232000B7832EE232E03183208345E351E05587C5
:10233000448744E351E05787468740E351E0518B9F
:10234000408B41E351E0538B428B42E351E0558B8C
:10235000448B46E351E0578B468B118E128E138EC1
:10236000148EE5EDF3E01382128284839583A683B5
:10237000B7833183208325EC30E03587248724EC34
:1023800030E03787268720EC30E0318B208B21EC42
:1023900030E0338B228B22EC30E0358B248B26EC23
:1023A00030E0378B268B118E128E138E148EE2E75F
:1023B000F4E01382128284839583A683B78380E43A
:1023C00092E091838083EAEDF4E08CE380838DE3F7
:1023D000818314E012836AE089E695E00E941E1171
:1023E00069E084E695E00E941E116BE08FE595E0C0
:1023F0000E941E11E9E5F5E080E1808381E181839F
:1024000085E08283E8E4F5E080E4808381E48183F1
:1024100087E0828388E38483E7E3F5E093E49083B5
:1024200092E4918398E09283848327E934E08EE3F9
:10243000F90180838FE3818386E0828388E680933D
:10244000D90485E0E9E6F5E0DE01999601900D9268
:102450008A95E1F785E0E4E6F5E0DE019E960190DD
:102460000D928A95E1F785E0FE01B996A7E2B5E005
:1024700001900D928A95E1F785E0FE01BE96ACE2EF
:10248000B5E001900D928A95E1F74DE155E0FA0132
:102490001082118212821382148215821682178290
:1024A00087E295E09187808761E1E7E3F5E0DE016F
:1024B000119601900D926A95E1F761E1FE01319666
:1024C000ACE0B5E001900D926A95E1F761E1E8E4D6
:1024D000F5E0DE01529601900D926A95E1F764EF06
:1024E00074E0FB01148A01E1FE017296A5EFB4E0ED
:1024F00001900D920A95E1F7FB01938B828B05E029
:10250000EFE5F5E0DE01D39601900D920A95E1F733
:10251000E1E0E0938000EBE0E0938100E3E0E09312
:10252000B0001093B10015E0FE01F396ACE8B4E002
:1025300001900D921A95E1F70AE814E0F80130874E
:10254000278391838083E6E0FE2EE9E5F5E0DE0156
:10255000939601900D92FA94E1F7F6E0FF2EFE01BA
:10256000B396ACEEB4E001900D92FA94E1F7A8EEC8
:10257000B4E01B969C938E931A97EEE7F4E03183B8
:10258000208393838283B583A483578346831187F3
:10259000008773876287E7960FB6F894DEBF0FBE99
:1025A000CDBFDF91CF911F910F91FF900895CF93F1
:1025B000DF93CDB7DEB727970FB6F894DEBF0FBE17
:1025C000CDBF789484B5826084BD84B5816084BDBC
:1025D00085B5826085BD85B5816085BD80916E00C1
:1025E000816080936E0010928100809181008260F2
:1025F000809381008091810081608093810080912F
:1026000080008160809380008091B100846080931D
:10261000B1008091B00081608093B0008091910002
:1026200082608093910080919100816080939100FD
:10263000809190008160809390008091A1008260E1
:102640008093A1008091A10081608093A10080917E
:10265000A00081608093A00080912101826080931E
:1026600021018091210181608093210180912001CD
:1026700081608093200180917A00846080937A0049
:1026800080917A00826080937A0080917A008160E4
:1026900080937A0080917A00806880937A0010920B
:1026A000C100E0914803F091490322E02083E091CA
:1026B0004403F09145031082E0914603F0914703F3
:1026C00080E1808310925003E0914C03F0914D0320
:1026D00096E09083E0914A03F0914B038081806102
:1026E0008083E0914A03F0914B038081886080836E
:1026F000E0914A03F0914B03808180688083E091F0
:102700004A03F0914B0380818F7D8083E091E50344
:10271000F091E6032083E091E103F091E20310825F
:10272000E091E303F091E4038FEC80831092ED03DA
:10273000E091E903F091EA039083E091E703F091DF
:10274000E803808180618083E091E703F091E803F2
:10275000808188608083E091E703F091E8038081C5
:1027600080688083E091E703F091E80380818F7DAA
:10277000808380E090E0A3E8B2E480939D0490938E
:102780009E04A0939F04B093A0041092A104109201
:10279000A2041092A3041092A4041092A504109213
:1027A000A6041092A7041092A8041092A9041092F3
:1027B000AA041092AB041092AC041092AD041092D3
:1027C000AE041092AF041092B0041092B1041092B3
:1027D000B2041092B3041092B4041092B504109293
:1027E000B6041092B7041092B8041092BA04109272
:1027F000B9041092BC041092BB041092BE04109253
:10280000BD041092BF041092C0041092C104109233
:10281000C2041092C3041092C4041092C504109212
:10282000C6041092C7041092C8041092C9041092F2
:10283000CA040E94940D68EC70E080E090E00E9471
:10284000CB0E1982BE016F5F7F4F8BE60E94170D82
:1028500064E670E080E090E00E94CB0E81E08A8325
:10286000BE016E5F7F4F8AE10E94170D88E08B8367
:10287000BE016D5F7F4F8BE10E94170D64E670E033
:1028800080E090E00E94CB0E04EF11E01C821D82DC
:102890001E821F82812C912C5401412C512C32011B
:1028A00026E04BEC54E063E487E994E00E94500793
:1028B0008091CB049091CC04982789279827092EE2
:1028C000000CAA0BBB0B480E591E6A1E7B1E809182
:1028D000CD049091CE04982789279827092E000CC3
:1028E000AA0BBB0B880E991EAA1EBB1E8091CF049B
:1028F0009091D004982789279827092E000CAA0BBD
:10290000BB0B2C813D814E815F81280F391F4A1FEF
:102910005B1F2C833D834E835F830150110909F0B7
:10292000BFCF34EFC32EDD24D394E12CF12CC301AF
:10293000B201A70196010E941A18CA01B9010E94AA
:10294000CF196093BF047093C0048093C104909327
:10295000C204C501B401A70196010E941A18CA0158
:10296000B9010E94CF196093C3047093C40480938B
:10297000C5049093C6046C817D818E819F81A701DF
:1029800096010E941A18CA01B9010E94CF196093DA
:10299000C7047093C8048093C9049093CA0460ED7F
:1029A00077E080E090E00E94CB0E8AE894E00E94FD
:1029B000610A60E070E080918A0490918B040E942B
:1029C000E10980919104909192040E94A807E091FE
:1029D0009104F0919204668577858089918960934E
:1029E000930470939404809395049093960442E02A
:1029F0000E94320C8EE492E00E94330B20E030E023
:102A000040E85FEB60919304709194048091950489
:102A1000909196040E94201987FF23C062EE7FEFF9
:102A20008CE894E00E94F3066AE070E080E090E0B9
:102A30000E94CB0E80919104909192040E94A8076D
:102A4000E0919104F091920486859785A089B189DF
:102A50008093930490939404A0939504B093960468
:102A6000CDCF20E030E040E85FE3609193047091C7
:102A7000940480919504909196040E94FE1A181671
:102A80001CF56EE170E08CE894E00E94F3066AE0C9
:102A900070E080E090E00E94CB0E809191049091D4
:102AA00092040E94A807E0919104F0919204868517
:102AB0009785A089B1898093930490939404A093FF
:102AC0009504B0939604CDCF60E070E08CE894E07C
:102AD0000E94F3068AE894E00E94610A80918604CD
:102AE000909187040E94610A1C8223E0C22ED12C9F
:102AF00022242394772473940091820410918304F8
:102B000060E0D80114968C910E94C60DF801848172
:102B10000E943C0D7C0160E0D80115968C910E94CA
:102B2000C60DF80185810E943C0DAC0121E030E02A
:102B3000EF2811F420E030E0220F331F91E0452B05
:102B400009F490E0292B822F022E000C990BD8015A
:102B500011969C938E931A968D919C911B9722307F
:102B600079F02330E1F02130D1F468ED7FEF0E945D
:102B7000F306F8018285938568ED7FEF05960CC01A
:102B800068E270E005960E94F30668E270E0D80102
:102B90001A968D919C911B970E94F30604C068E2DF
:102BA00070E00E94E109E0908404F09085040E94A6
:102BB000050FF701648375838683978300811181F4
:102BC00022813381DC01CB01801B910BA20BB30B63
:102BD00084369105A105B10508F4C5C00E94050F12
:102BE000D7016D937D938D939C931397F701148276
:102BF0001582168217820E94050F0091E004109141
:102C0000E1042091E2043091E304DC01CB01801B5C
:102C1000910BA20BB30B4897A105B10510F02092C0
:102C2000DF048091DF04882309F45FC00E94050F50
:102C30006093E0047093E1048093E2049093E304D2
:102C40001092DF0460E08AED94E00E94CD04C6019A
:102C50000197F1F761E08AED94E00E94CD0483E2F0
:102C600090E00197F1F760E08AED94E00E94CD04D6
:102C700060E08091DB040E94C60D8091DB0490E04F
:102C8000FC01E654FD4F6491FC01EC58FD4FE491CA
:102C9000F0E0EE0FFF1FE65AFD4F8591949100E49E
:102CA00012E42FE030E0462F0E94D9106115710523
:102CB0008105910551F02B013C01FFEF4F1A5F0A8E
:102CC0006F0A7F0A2FE0722203C0412C512C32017F
:102CD000C301B2010E94CF196093E4047093E5042C
:102CE0008093E6049093E7040CC06091E404709133
:102CF000E5048091E6049091E7040E9497192B0166
:102D00003C01C301B2010E94CF1920E030E048E647
:102D100052E40E9425194B015C0120E030E048ECB0
:102D200053E40E94FE1A87FD02C0712CE5CE4528AF
:102D300046284728D1F320E030E040EE50E4C501BA
:102D4000B4010E942019181684F360E070E0D701E6
:102D500018968D919C9119970E94E1098BE692E05B
:102D60000E94450B07C0F701148215821682178254
:102D70007720D9F281E792E00E94450B009186040A
:102D80001091870460E070E0D8018D919C910E94C1
:102D9000E109F801878190850E94A807D80117965C
:102DA000ED91FC9118976685778580899189F80166
:102DB000618772878387948742E00E94320C8EE499
:102DC00092E00E94330B98012E5F3F4F790120E083
:102DD00030E040E052ECD80119966D917D918D91D3
:102DE0009C911C970E94201987FF1FC06EEC7FEFFB
:102DF000C7010E94F3066AE070E080E090E00E9464
:102E0000CB0EF801878190850E94A807D8011796FC
:102E1000ED91FC91189786859785A089B189F80175
:102E200081879287A387B487D2CF20E030E040EF3C
:102E300051ECD80119966D917D918D919C911C97C3
:102E40000E94FE1A1816FCF462E370E0C7010E94AB
:102E5000F3066AE070E080E090E00E94CB0EF8019B
:102E6000878190850E94A807D8011796ED91FC9163
:102E7000189786859785A089B189F80181879287FF
:102E8000A387B487D2CF60E070E0C7010E94F30649
:102E900080918804909189040E94F909182F0E945A
:102EA000040D131561F0FC81FF2341F0809188042B
:102EB000909189040E94F909182FF3CF312E832DA8
:102EC0000E94040D6DED7FEF80918004909181044C
:102ED0000E94E10960ED77E080E090E00E94CB0E77
:102EE000009186041091870460E070E0D8018D9114
:102EF0009C910E94E109F801878190850E94A807B2
:102F000085ED93E00E94D701D8011796ED91FC91D1
:102F1000189786859785A089B189F801818792875E
:102F2000A387B48798012E5F3F4F790120E030E0FE
:102F300040E951E4D80119966D917D918D919C9154
:102F40001C970E94201987FF23C062EE7FEFC70104
:102F50000E94F30664E670E080E090E00E94CB0EF1
:102F6000F801878190850E94A80785ED93E00E9473
:102F7000D701D8011796ED91FC9118978685978512
:102F8000A089B189F80181879287A387B487CECFC2
:102F900060E070E0C7010E94F30663E270E0809198
:102FA0008004909181040E94E1096AE872E080E067
:102FB00090E00E94CB0E80918604909187040E943D
:102FC000610AF1E0FC8396CDAA1BBB1B51E107C04F
:102FD000AA1FBB1FA617B70710F0A61BB70B881FA9
:102FE000991F5A95A9F780959095BC01CD01089538
:102FF000A1E21A2EAA1BBB1BFD010DC0AA1FBB1FFD
:10300000EE1FFF1FA217B307E407F50720F0A21B6E
:10301000B30BE40BF50B661F771F881F991F1A94DB
:1030200069F760957095809590959B01AC01BD0105
:10303000CF010895052E97FB1EF400940E943118CD
:1030400057FD07D00E94F81707FC03D04EF40C94EC
:10305000311850954095309521953F4F4F4F5F4F18
:10306000089590958095709561957F4F8F4F9F4FF4
:103070000895EE0FFF1F881F8BBF0790F691E02D7C
:1030800019945058BB27AA270E9459180C94AC1ABF
:103090000E949E1A38F00E94A51A20F039F49F3F32
:1030A00019F426F40C94741A0EF4E095E7FB0C94D2
:1030B000451AE92F0E94BD1A58F3BA176207730721
:1030C0008407950720F079F4A6F50C94F71A0EF40E
:1030D000E0950B2EBA2FA02D0B01B90190010C0128
:1030E000CA01A0011124FF27591B99F0593F50F440
:1030F000503E68F11A16F040A22F232F342F442798
:10310000585FF3CF469537952795A795F04053958F
:10311000C9F77EF41F16BA0B620B730B840BBAF05F
:103120009150A1F0FF0FBB1F661F771F881FC2F7CA
:103130000EC0BA0F621F731F841F48F487957795DE
:103140006795B795F7959E3F08F0B0CF9395880F98
:1031500008F09927EE0F9795879508950E949E1A7B
:1031600060F080E891E009F49EEF0E94A51A28F033
:1031700040E851E071F45EEF0CC00C94741A0C94AA
:10318000F71AE92FE0780E94BD1A40F3092E052AAC
:10319000B1F3261737074807590738F00E2E07F8FE
:1031A000E02569F0E025E0640AC0EF6307F80094C9
:1031B00007FADB01B9019D01DC01CA01AD01EF9302
:1031C0000E943C190E94AC1A0E94F1185F9155238D
:1031D00039F02BED3FE049E450FD49EC0C944218E6
:1031E0000895DF93DD27B92FBF7740E85FE3161618
:1031F000170648075B0718F4D92F0E94031B9F93FB
:103200008F937F936F930E94BE1BECE2F1E00E94CC
:10321000771A0E94AC1A2F913F914F915F910E94B3
:103220001E1BDD2351F09058A2EA2AED3FE049EC45
:103230005FE3D0785D270E945918DF910C94AC1A97
:103240000E94211A08F481E008950E9439190C9413
:10325000AC1A0E94A51A58F00E949E1A40F029F458
:103260005F3F29F00C94451A51110C94F81A0C94F4
:10327000741A0E94BD1A68F39923B1F3552391F390
:10328000951B550BBB27AA2762177307840738F0D5
:103290009F5F5F4F220F331F441FAA1FA9F335D032
:1032A0000E2E3AF0E0E832D091505040E695001CE6
:1032B000CAF72BD0FE2F29D0660F771F881FBB1FA0
:1032C000261737074807AB07B0E809F0BB0B802D7E
:1032D000BF01FF2793585F4F3AF09E3F510578F0AA
:1032E0000C94451A0C94F81A5F3FE4F3983ED4F31B
:1032F000869577956795B795F7959F5FC9F7880F7E
:10330000911D9695879597F90895E1E0660F771FCF
:10331000881FBB1F621773078407BA0720F0621B60
:10332000730B840BBA0BEE1F88F7E09508950E948B
:103330009E196894B1110C94F81A08950E94C51A48
:1033400088F09F5798F0B92F9927B751B0F0E1F066
:10335000660F771F881F991F1AF0BA95C9F714C016
:10336000B13091F00E94F71AB1E008950C94F71A69
:10337000672F782F8827B85F39F0B93FCCF386954F
:1033800077956795B395D9F73EF4909580957095AC
:1033900061957F4F8F4F9F4F0895E89409C097FB29
:1033A0003EF490958095709561957F4F8F4F9F4F1C
:1033B0009923A9F0F92F96E9BB279395F695879560
:1033C00077956795B795F111F8CFFAF4BB0F11F423
:1033D00060FF1BC06F5F7F4F8F4F9F4F16C08823CA
:1033E00011F096E911C0772321F09EE8872F762F00
:1033F00005C0662371F096E8862F70E060E02AF041
:103400009A95660F771F881FDAF7880F969587952C
:1034100097F908950E94DF1A90F09F3748F49111B0
:1034200016F00C94F81A60E070E080E89FEB0895C5
:1034300026F41B16611D711D811D0C944B1A0C94F2
:10344000661A990F0008550FAA0BE0E8FEEF161652
:103450001706E807F907C0F012161306E407F50788
:1034600098F0621B730B840B950B39F40A2661F0FC
:10347000232B242B252B21F408950A2609F4A1409F
:10348000A6958FEF811D811D089597F99F6780E8AC
:1034900070E060E00895882371F4772321F098505C
:1034A000872B762F07C0662311F499270DC0905102
:1034B000862B70E060E02AF09A95660F771F881FD0
:1034C000DAF7880F9695879597F908959F3F31F021
:1034D000915020F4879577956795B795880F911D42
:1034E0009695879597F908959FEF80EC0895DF935F
:1034F000CF931F930F93FF92EF92DF927B018C018A
:10350000689406C0DA2EEF010E941E1BFE01E894AB
:10351000A5912591359145915591A6F3EF010E9412
:103520005918FE019701A801DA9469F7DF90EF902E
:10353000FF900F911F91CF91DF91089500240A947D
:103540001616170618060906089500240A9412167E
:103550001306140605060895092E0394000C11F4B1
:10356000882352F0BB0F40F4BF2B11F460FF04C05E
:103570006F5F7F4F8F4F9F4F089557FD9058440FB7
:10358000551F59F05F3F71F04795880F97FB991FC2
:1035900061F09F3F79F0879508951216130614067F
:1035A000551FF2CF4695F1DF08C01616170618060C
:1035B000991FF1CF869571056105089408950E94C1
:1035C000C51AA0F0BEE7B91788F4BB279F3860F48E
:1035D0001616B11D672F782F8827985FF7CF86952D
:1035E00077956795B11D93959639C8F30895E8943A
:1035F000BB2766277727CB0197F908950E94211AE8
:1036000008F48FEF08959B01AC0160E070E080E862
:103610009FE30C9425190E941E1B0C94AC1A0E9467
:103620009E1A38F00E94A51A20F0952311F00C94F0
:10363000451A0C94741A11240C94F81A0E94BD1A9D
:1036400070F3959FC1F3950F50E0551F629FF001F5
:10365000729FBB27F00DB11D639FAA27F00DB11D0E
:10366000AA1F649F6627B00DA11D661F829F222797
:10367000B00DA11D621F739FB00DA11D621F839F1E
:10368000A00D611D221F749F3327A00D611D231FF4
:10369000849F600D211D822F762F6A2F11249F5742
:1036A00050409AF0F1F088234AF0EE0FFF1FBB1F45
:1036B000661F771F881F91505040A9F79E3F510504
:1036C00080F00C94451A0C94F81A5F3FE4F3983E8E
:1036D000D4F3869577956795B795F795E7959F5FAE
:1036E000C1F7FE2B880F911D9695879597F9089540
:1036F00019F416F40C94741A0C94661A0E94C51AE4
:10370000B8F39923C9F3B6F39F57550B87FF0E946F
:10371000C71B0024A0E640EA900180585695979573
:1037200028F4805C660F771F881F20F02617370764
:10373000480730F4621B730B840B202931294A2B74
:10374000A69517940794202531254A2758F7660F28
:10375000771F881F20F026173707480730F4620BC1
:10376000730B840B200D311D411DA09581F7B9010C
:10377000842F9158880F9695879508959B01AC01E9
:103780000C940B1B0E94211A880B990B08959150E1
:103790005040660F771F881FD2F7089581E090E0B0
:0A37A000F8940C94D31BF894FFCFAB
:1037AA0000000021200B2829072F30063938040091
:1037BA00000000000000000000000023220C242565
:1037CA00082A2B093B3A0500000000000000600FA0
:1037DA00110F3B0FAD0FF901D701EB0100000000FB
:1037EA00C7029A02F7026E0292027E026F020D0A65
:1037FA0000636F756C6575723A006F6B6F6B006E64
:10380A00616E00696E66006F76660063617074654A
:08381A000070696563650000A0
:00000001FF
