:100000000C94A4010C94D5010C94D5010C94D50149
:100010000C94D5010C94D5010C94D5010C94D50108
:100020000C94D5010C94D5010C94D5010C94D501F8
:100030000C94D5010C94D5010C94D5010C94D501E8
:100040000C94D5010C94D5010C94D5010C94D501D8
:100050000C94D5010C94D5010C94D5010C94280F67
:100060000C94D5010C949C0F0C94720F0C94D50138
:100070000C94D5010C94D5010C94D5010C94D501A8
:100080000C94D5010C94D5010C94D5010C94D50198
:100090000C94D5010C94D5010C94D5010C941D043D
:1000A0000C94D5010C94D5010C94D5010C94D50178
:1000B0000C94D5010C94D5010C94D5010C94D50168
:1000C0000C94D5010C94D5010C94D5010C94D50158
:1000D0000C94D5010C94D5010C94D5010C94D50148
:1000E0000C94D501860B890B780B7C0B820BC00B13
:1000F0008D0B910B970B9B0B9F0BA50BA90BAD0BBE
:10010000C00BB30BB70BBB0B0C0E110E160E200E53
:100110002A0EA30E340E3C0E440E4E0E580E620EE6
:10012000710E7B0EA30E850E8F0E990E084AD73BDB
:100130003BCE016E84BCBFFDC12F3D6C74319ABDB6
:1001400056833DDA3D00C77F11BED9E4BB4C3E91DA
:100150006BAAAABE000000803F000C9491020C9490
:10016000860B0C948F0E0C94B30B0C947C0B0C949C
:10017000FB030C94440E0C9482020C94780B0C94A8
:100180007B0E0C949B0B0C9408020C949F0B0C940C
:10019000990E0C94BB0B0C940C0E0C940A030C944B
:1001A000A30E0C94C00B0C94A5020C94890B0C9418
:1001B000710E0C943C0E0C94A50B0C94F20E0C9446
:1001C000970B0C947F020C94200E0C948D0B0C94C6
:1001D000620E0C9481020C94160E0C94E6010C94A1
:1001E000AE030C94340E0C94AD0B0C94820B0C9457
:1001F000B70B0C94D7010C94FA010C9471100C9469
:10020000850E0C9480020C94110E0C94AD020C948B
:100210004E0E0C94910B0C94A90B0C942A0E0C947A
:10022000580E0C94DA0200002100240027002A0056
:100230002D003000330001010000040107010A0114
:1002400000002200250028002B002E003100340081
:1002500002010000050108010B010000200023003D
:10026000260029002C002F003200000100000301AD
:100270000601090105050505070508080808020229
:1002800002020A0A08080404040401010101010130
:1002900001010303030303030303040707070C0C13
:1002A0000C0C0C0C0C0C02020202060606060606DA
:1002B00006060B0B0B0B0B0B0B0B0102102020087F
:1002C00008102040102040800201020108040201B1
:1002D0000102040810204080804020100804020120
:1002E0008004020180402010080402010804020179
:1002F0000102040810204080010204081020408000
:1003000000000A0B02090C0D0E080703040100008F
:1003100000000000000000000000000000000000DD
:10032000000000000000000000000000121110009A
:1003300000000000000000000000000000000000BD
:10034000000000000000711011241FBECFEFD1E2A9
:10035000DEBFCDBF00E00CBF12E0A0E0B2E0E6E6F9
:10036000F4E300E00BBF02C007900D92A837B1077D
:10037000D9F724E0A8E7B2E001C01D92A13DB20781
:10038000E1F711E0C4EAD1E000E006C021970109DD
:10039000802FFE010E949716C33AD10780E008071C
:1003A000A9F70E94A8110C94311A0C940000FC01CA
:1003B000538D448D252F30E0842F90E0821B930BCA
:1003C000541710F0CF96089501970895FC01918D70
:1003D000828D981761F0828DDF01A80FB11D5D96A7
:1003E0008C91928D9F5F9F73928F90E008958FEF15
:1003F0009FEF0895FC01918D828D981731F0828DC9
:10040000E80FF11D858D90E008958FEF9FEF08951F
:10041000FC01918D228D892F90E0805C9F4F821B83
:1004200091098F739927089580E090E0892B21F03E
:100430000E941E0F811125C080E090E0892B41F0C1
:1004400080E090E0892B21F00E94000081111CC007
:1004500080E090E0892B41F080E090E0892B21F052
:100460000E940000811113C080E090E0892BA1F070
:1004700080E090E0892B81F00E94000081110AC089
:1004800008950E940000D8CF0E940000E1CF0E9492
:100490000000EACF0C940000089585ED8093BC0025
:1004A0008091BC0084FDFCCF1092370308954091E9
:1004B0009C02262F30E0240F311D21323105DCF45F
:1004C000209137032430C9F4FC0180E090E08617C6
:1004D00058F430919C022191DC01A458BD4FA30F28
:1004E000B11D2C930196F3CF80919C02680F60930D
:1004F0009C0280E0089581E0089582E008950895C7
:1005000008950895E091CC028091CB02E81730F471
:10051000F0E0EF50FD4F808190E008958FEF9FEF66
:1005200008959091CC028091CB02981750F4E92F56
:10053000F0E0EF50FD4F208130E09F5F9093CC02C0
:1005400002C02FEF3FEFC90108958091CB0290E0E8
:100550002091CC02821B91090895CF92DF92EF92F5
:10056000FF920F931F93CF93DF937C01CB018A01FE
:100570002091CD02222389F0EB016B01C40ED51E20
:10058000CC15DD0569F06991D701ED91FC910190E1
:10059000F081E02DC7011995F3CF642F0E94570217
:1005A000C801DF91CF911F910F91FF90EF90DF90E5
:1005B000CF900895CF93DF931F92CDB7DEB76983B5
:1005C0002091CD022223D1F02091F002203240F080
:1005D00021E030E0FC013383228380E090E015C00D
:1005E0008091CE02E82FF0E0E153FD4F9981908396
:1005F0008F5F8093CE028093F00205C061E0CE0150
:1006000001960E94570281E090E00F90DF91CF9118
:100610000895089580E090E00895CF93DF931F92AE
:10062000CDB7DEB74983FC01848191E09093CD0280
:100630008093EF021092CE021092F00285ED93E0CB
:100640000E94DA02813069F441E050E0BE016F5F40
:100650007F4F85ED93E00E94AD0281E00E94480C3F
:1006600001C08FEF0F90DF91CF910895EF92FF922D
:100670000F931F93CF93DF938C01F42ED52FC22FAE
:10068000FC01848191E09093CD028093EF0210925F
:10069000CE021092F00285ED93E00E94DA028130E2
:1006A00001F580E00E94480C81112FC06C2FC132EF
:1006B00008F060E2F80184810E94060C1092CC02DE
:1006C0008093CB020F2D1D2FE12CF12CD0E09091C7
:1006D000CB028091CC02981731F0EC16FD0654F055
:1006E00002C08FEF12C081E0CE15DF0509F480E073
:1006F00081950BC0FFEFEF1AFF0A85ED93E00E9492
:100700009102F80181938F01E2CFDF91CF911F9188
:100710000F91FF90EF900895FC01848DDF01A80FE9
:10072000B11DA35ABF4F2C91848D90E001968F7319
:100730009927848FA689B7892C93A089B1898C9138
:10074000837080648C93938D848D981306C0028887
:10075000F389E02D80818F7D80830895EF92FF9251
:100760000F931F93CF93DF93EC0181E0888F9B8DD4
:100770008C8D981305C0E889F989808185FD26C094
:10078000F62E0B8D10E00F5F1F4F0F731127E02E19
:100790008C8DE8120CC00FB607FCFACFE889F989F6
:1007A000808185FFF5CFCE010E948C03F1CF8B8D28
:1007B000FE01E80FF11DE35AFF4FF0829FB7F89456
:1007C0000B8FEA89FB89808180620AC09FB7F89409
:1007D000EE89FF896083E889F9898081837080646C
:1007E00080839FBF81E090E0DF91CF911F910F91B7
:1007F000FF90EF900895CF93DF93EC01888D8823CD
:10080000C9F0EA89FB89808185FD05C0A889B9897D
:100810008C9186FD0FC00FB607FCF5CF808185FF58
:10082000F2CFA889B9898C9185FFEDCFCE010E94C6
:100830008C03E7CFDF91CF9108951F920F920FB6EF
:100840000F9211240BB60F922F933F934F935F9308
:100850006F937F938F939F93AF93BF93EF93FF9388
:100860008091B900887F803609F49CC068F5883291
:1008700009F45BC090F4803109F454C038F4882343
:1008800009F4F6C0883009F44DC0F6C0883109F487
:100890004CC0803209F45DC0EFC0803409F468C0F8
:1008A00048F4803309F455C0883309F0E5C08093DB
:1008B0003503D8C0803509F44FC0883509F45DC0D0
:1008C000883409F0D9C0D6C0883909F4C7C0A8F463
:1008D000883709F467C038F4883609F463C0803774
:1008E00009F460C0C9C0883809F4B8C0803909F477
:1008F0005FC0803809F0C0C05BC0803B09F486C08F
:1009000038F4803A09F466C0883A09F47FC0B4C06C
:10091000803C09F4A7C0883C09F4A4C0883B09F4D2
:100920008AC0AAC08091320310C090913403809194
:100930003303981770F5E091340381E08E0F8093B4
:100940003403F0E0EF5EFC4F80818093BB0085ECC8
:1009500086C0809335038EC0E091340381E08E0F12
:10096000809334038091BB00F0E0EF5EFC4F808306
:1009700090913403809133036EC0E091340381E0A1
:100980008E0F809334038091BB00F0E0EF5EFC4F4C
:1009900080838091360381116DC081E080933103A3
:1009A00084EA61C083E0809337031092BE02CFCF08
:1009B0008091BE02803208F051C0E091BE0281E019
:1009C0008E0F8093BE028091BB00F0E0E256FD4F97
:1009D0008083BDCF85EC8093BC001092370380915B
:1009E000BE02803230F4E091BE02F0E0E256FD4FEC
:1009F00010826091BE0270E0E091C702F091C802DF
:100A00008EE992E019951092BE0236C084E0809380
:100A1000370310929D0210929C02E091C902F0915E
:100A2000CA02199580919C02811105C081E08093D2
:100A30009C0210927C02E0919D0281E08E0F8093D7
:100A40009D02F0E0E458FD4F80818093BB009091BF
:100A50009D0280919C02981708F479CF85E88093D5
:100A6000BC000AC085EC8093BC001092370304C020
:100A7000109235030E944D02FF91EF91BF91AF910B
:100A80009F918F917F916F915F914F913F912F91A6
:100A90000F900BBE0F900FBE0F901F9018951F93D5
:100AA000CF93DF93EC01162F61E089810E94A70D9F
:100AB000612F8981DF91CF911F910C94460D0F9387
:100AC0001F93CF93DF938C016F3F710519F014F0E2
:100AD0006FEF70E0EB0161307F4F14F4C1E0DFEFA6
:100AE000F80183819481C817D90709F440C0D483E1
:100AF000C3831C161D068CF4818160E00E94460DA4
:100B00008FE090E00197F1F7F801808161E00E94A9
:100B1000460DF8018281BE0124C0F8012097A1F0A2
:100B2000808160E00E94460D8FE090E00197F1F730
:100B3000F801818161E00E94460DF80182816627FB
:100B400077276C1B7D0B0DC0818160E00E94460DF4
:100B5000F801808160E00E94460DF801828160E02A
:100B600070E0DF91CF911F910F910C94E30DDF9115
:100B7000CF911F910F910895EF92FF920F931F93C2
:100B8000CF93DF93F42ED52FC22F8C010E5B1F4F16
:100B9000F801808191E09093CD028093EF02109252
:100BA000CE021092F00285ED93E00E94DA028130CD
:100BB00001F580E00E94480C81112FC06C2FC132DA
:100BC00008F060E2F80180810E94060C1092CC02CD
:100BD0008093CB020F2D1D2FE12CF12CD0E09091B2
:100BE000CB028091CC02981731F0EC16FD0654F040
:100BF00002C08FEF12C081E0CE15DF0509F480E05E
:100C000081950BC0FFEFEF1AFF0A85ED93E00E947C
:100C10009102F80181938F01E2CFDF91CF911F9173
:100C20000F91FF90EF9008952F923F924F925F9215
:100C30006F927F928F929F92AF92BF92CF92DF92EC
:100C4000EF92FF92CF93DF93CDB7DEB72A970FB61F
:100C5000F894DEBF0FBECDBF9A878987AC014C5C8C
:100C60005F4F2EE06BE30E94BC058111FFC1E98557
:100C7000FA8564A875A876246724762473A262A2F4
:100C8000E6A8F7A8FE24EF24FE24F5A2E4A2A0AC77
:100C9000B1ACBA24AB24BA24B7A2A6A2268037806E
:100CA0004084518464AD75AD762767277627072E7B
:100CB000000C880B990B0E942D18E985FA8520A558
:100CC00031A542A553A50E949F16A20191010E9441
:100CD0008317E985FA85668B778B808F918F66AD58
:100CE00077AD762767277627072E000C880B990BA0
:100CF0000E942D18E985FA8524A535A546A557A596
:100D00000E949F16A20191010E948317E985FA852E
:100D1000628F738F848F958FE05CFF4F608171814C
:100D2000762767277627072E000C880B990B0E94E1
:100D30002D18E985FA8520A931A942A953A90E9455
:100D40009F16A20191010E948317E985FA85668F9B
:100D5000778F80A391A3B701FF0C880B990B0E949A
:100D60002D186B017C01B501BB0C880B990B0E94FF
:100D70002D189B01AC010E9469194B015C01A70170
:100D80009601C701B6010E946919A50194010E944C
:100D9000A0160E94DC1969837A838B839C83B3013C
:100DA000770C880B990B0E942D182B013C0129818F
:100DB0003A814B815C810E941F1720E030E044E3C0
:100DC00053E40E9469192AED3FE049E450E40E948F
:100DD000831769837A838B839C83A3019201C30168
:100DE000B2010E946919A50194010E94A0160E94F7
:100DF000DC199B01AC01C701B6010E941F1720E05E
:100E000030E044E353E40E9469192AED3FE049E4ED
:100E100050E40E9483176D837E838F8398870E949E
:100E2000E60EC0907802D0907902E0907A02F090BD
:100E30007B026C197D098E099F090E942B1820E006
:100E400030E04AE754E40E9483176B017C010E9462
:100E5000E60E609378027093790280937A02909301
:100E60007B02E985FA8586A197A1181619065CF51B
:100E7000228D338D448D558DC701B6010E946919AD
:100E80009B01AC01E985FA8562857385848595852A
:100E90000E949F16E985FA85628773878487958704
:100EA00026893789408D518DC701B6010E94691985
:100EB0009B01AC01E985FA856685778580899189F2
:100EC0000E94A0162CC0E985FA85228D338D448DB1
:100ED000558DC701B6010E9469199B01AC01E985D6
:100EE000FA8562857385848595850E94A016E985BB
:100EF000FA85628773878487958726893789408D2D
:100F0000518DC701B6010E9469199B01AC01E985A9
:100F1000FA8566857785808991890E949F16E98583
:100F2000FA8566877787808B918BE985FA85268D90
:100F3000378D40A151A1C701B6010E946919E98509
:100F4000FA8522893389448955890E94A0162B018C
:100F50003C0120E030E044EB53E40E9483170E9400
:100F6000681820E030E044EB53E40E9469199B01CB
:100F7000AC01C301B2010E949F162B013C0120E08D
:100F800030E044E353E40E945C1918163CF0E98514
:100F9000FA85428A538A648A758A0EC020E030E05E
:100FA00044EB53E4C301B2010E949F16E985FA8520
:100FB000628B738B848B958B20E030E040E05FE3A5
:100FC000C701B6010E94A0169B01AC0160E070E071
:100FD00080E09FE30E9483176B017C019B01AC01C1
:100FE00060E070E080E89FE30E949F164B015C0187
:100FF000E985FA852285338544855585C701B60183
:101000000E9469192B013C01A501940169817A8133
:101010008B819C810E9469199B01AC01C301B201C3
:101020000E94A016E985FA85628773878487958771
:101030002685378540895189C701B6010E94691903
:101040006B017C01A50194016D817E818F81988562
:101050000E9469199B01AC01C701B6010E94A0164C
:10106000E985FA8566877787808B918B2A960FB6FC
:10107000F894DEBF0FBECDBFDF91CF91FF90EF9010
:10108000DF90CF90BF90AF909F908F907F906F90A8
:101090005F904F903F902F900895CF93DF93EC0196
:1010A00060E00E944F0561E088810E94A70D61E029
:1010B00088810E94460D0E94750D40EC60E470E04E
:1010C000CE010E940D0340E061E470E0CE010E9479
:1010D0000D0340E162E470E0CE010E940D0342E0A6
:1010E00064E470E0CE010E940D0340E060E670E031
:1010F000CE010E940D0341E061E670E0CE01DF9178
:10110000CF910C940D034F925F926F927F928F92CA
:101110009F92AF92BF92CF92DF92EF92FF920F9386
:101120001F93CF93DF93CDB7DEB728970FB6F89410
:10113000DEBF0FBECDBF5C010E944D08198221E0C9
:101140008E010F5F1F4FA80162E9C5010E9436039F
:101150008981803E09F0A3C060EA70E080E090E001
:101160000E94AC0E88E0D8011D928A95E9F728E02C
:10117000A80160E5C5010E94360389819A81F501C5
:10118000928781878B819C81948783878D819E81C3
:10119000968785878F819885908B878761E0C501C9
:1011A0000E944F05D50119960D911C911A97C801FF
:1011B000895C91091B96ED90FC901C971D96CD9033
:1011C000DC901E978336910568F4C7018B5F910907
:1011D0008336910560F4B8EECB16B3E0DB0608F475
:1011E00048C105C0003BE4E01E0708F0E2C0F4EA95
:1011F000EF16F6E0FF0608F0DCC020EBC21624E094
:10120000D20608F0D6C0C016D10608F04AC0E016D3
:10121000F10608F44AC05801AE0CBF1CAC0CBD1C52
:101220004601880C991C8DE2A81681E0B806F0F002
:10123000B70180E090E00E942B182B013C01B8011F
:1012400080E090E00E942B1820E030E040EC5FE36B
:101250000E9469199B01AC01C301B2010E945C1993
:10126000181624F48E149F0408F409C18E149F04E8
:1012700040F48016910628F4A9E7AA16B10408F0F4
:10128000FAC00139114058F0E5E4EE16E2E0FE063E
:1012900030F0F1E4CF16F1E0DF0608F0F2C089E0AB
:1012A00000C1E016F10608F0EEC0CE14DF0460F5D0
:1012B0000E0D1F1D0C0D1D1D0D3D110580F3B701F9
:1012C00080E090E00E942B184B015C01B60180E0A9
:1012D00090E00E942B182AE939E949E150E40E9484
:1012E00069196B017C019B01AC01C501B4010E942D
:1012F0007E1787FDC2C0A7019601C501B4010E94F7
:101300005C1987FFBAC0CBCF0C151D0508F4C3C00C
:10131000E016F106E0F1C016D106C8F1C8018E0D45
:101320009F1D8C0D9D1D8139914008F4B8CFB701E8
:1013300080E090E00E942B184B015C01B80180E036
:1013400090E00E942B182DEC3CEC4CE050E40E9405
:1013500069199B01AC01C501B4010E945C19181602
:101360000CF099C0B60180E090E00E942B182DECA3
:101370003CEC4CE050E40E9469199B01AC01C501B2
:10138000B4010E945C1918160CF085C078C0C80121
:101390008C0D9D1DE816F90608F081CF0E0D1F1D5E
:1013A000C00ED11E8DEBC81682E0D80608F477CFA8
:1013B00068C0EC14FD0420F40C151D0508F46BC086
:1013C000E016F10620F4CE14DF0408F456C0D5016F
:1013D0001F96ED91FC915097C801BF010E944216E3
:1013E000462F362FC701BF010E944216262FC60185
:1013F000BF010E944216493028F0253000F56230C6
:10140000D0F43BC0433008F048C0253018F46330B6
:1014100008F445CF2B3010F0653088F1353078F482
:10142000253010F46B30B8F5343071F0283080F08E
:10143000683088F509C04B3010F06530F0F0273087
:1014400038F0673040F504C02A3010F0663018F5E7
:101450004650433028F42630A0F0623090F40BC0A0
:10146000393078F0393069F0283058F4623048F477
:1014700004C08BE016C084E014C082E012C085E096
:1014800010C080E00EC0CE14DF0408F447CF0C1566
:101490001D0508F043CF87E004C0463008F4BACFFA
:1014A000CECF28960FB6F894DEBF0FBECDBFDF912A
:1014B000CF911F910F91FF90EF90DF90CF90BF9051
:1014C000AF909F908F907F906F905F904F90089516
:1014D000CF93DF93EC017B876A8788279927861B48
:1014E000970B9D878C871F861E86CE010E945F0505
:1014F0006C857D85CE010596DF91CF910C945F05BB
:101500000F931F93CF93DF93EC018C010F5F1F4F5D
:10151000C8010E94830888838881823021F1853048
:1015200011F14AE065E070E080E090E00E94A40CD8
:101530008EE492E00E94E60B8CE592E00E94F80BAC
:101540006DE270E08A899B890E94680A68E270E017
:1015500080E090E00E94AC0E60E070E08A899B8998
:101560000E94680AD5CF81E592E00E94F80B88813D
:101570000E94E50C888190E0DF91CF911F910F913F
:1015800008950F931F93CF93DF93EC0160E070E019
:10159000888199810E94680A8F8198850E9414062B
:1015A00088E393E00E94E601EF81F88586859785C0
:1015B000A089B18989879A87AB87BC878E010E5F26
:1015C0001F4F20E030E040E651E469857A858B8545
:1015D0009C850E947E1787FF1EC06CE97FEFC801C3
:1015E0000E945F0564E670E080E090E00E94AC0E2F
:1015F0008F8198850E94140688E393E00E94E6019B
:10160000EF81F88586859785A089B18989879A8732
:10161000AB87BC87D6CF60E070E0C801DF91CF9187
:101620001F910F910C945F050F931F93CF93DF933E
:10163000EC0160E070E0888199810E94680A8F81E6
:1016400098850E94140688E393E00E94E601EF81EA
:10165000F88586859785A089B18989879A87AB8720
:10166000BC878AE592E00E94F80B8E010E5F1F4F47
:1016700020E030E044E052EC69857A858B859C85DA
:101680000E945C191816F4F464E670E0C8010E9428
:101690005F0564E670E080E090E00E94AC0E8F8110
:1016A00098850E94140688E393E00E94E601EF818A
:1016B000F88586859785A089B18989879A87AB87C0
:1016C000BC87D6CF60E070E0C801DF91CF911F9159
:1016D0000F910C945F0590E0FC013197E231F10528
:1016E00008F04EC08827EE58FF4F8F4F0C94971686
:1016F000809180008F7703C0809180008F7D8093E0
:101700008000089580918000877FF9CF84B58F771E
:1017100002C084B58F7D84BD08958091B0008F771D
:1017200003C08091B0008F7D8093B00008958091B8
:1017300090008F7707C0809190008F7D03C08091CB
:101740009000877F8093900008958091A0008F770C
:1017500007C08091A0008F7D03C08091A000877F8B
:101760008093A0000895809120018F7707C0809119
:1017700020018F7D03C080912001877F809320010D
:1017800008953FB7F8948091C3029091C402A0914C
:10179000C502B091C60226B5A89B05C02F3F19F01F
:1017A0000196A11DB11D3FBFBA2FA92F982F8827E1
:1017B000820F911DA11DB11DBC01CD0142E0660F3C
:1017C000771F881F991F4A95D1F70895009769F0F0
:1017D000FC0101900020E9F73197AF01481B590B3C
:1017E000BC0188E393E00C94F20E80E090E0089551
:1017F000CF93DF930E94E60BEC018EE492E00E940F
:10180000E60B8C0F9D1FDF91CF91089590913703C8
:101810009111FCCF91E090933703909336032FEF13
:101820002093350310923403260F209333039093B3
:10183000320390913203880F892B80933203809179
:101840003103813061F4109231038091320380932F
:10185000BB008091BC0083FDF8CF85EC01C085EE14
:101860008093BC00809137038130E1F38091340391
:10187000861710F460913403A1E1B3E0E1EFF2E0E8
:1018800080E0861721F09D9191938F5FFACF0895A4
:10189000282F3091F002313208F04AC0809137038E
:1018A0008111FCCF9091EF0242E0409337032093E7
:1018B00036032FEF20933503109234033093330314
:1018C000EFECF2E0A1E1B3E020E0321721F041912A
:1018D0004D932F5FFACF1092320320913203990F6C
:1018E000922B9093320390913103913061F41092D6
:1018F0003103909132039093BB009091BC0093FD13
:10190000F8CF95EC01C095EE9093BC009091370311
:101910009230E1F3909135039F3F79F08091350348
:10192000803241F080913503803331F084E005C08E
:1019300081E003C082E001C083E01092CE021092E9
:10194000F0021092CD0208958F929F92AF92BF92B3
:101950000F931F93CF93DF93CDB7DEB7A1970FB649
:10196000F894DEBF0FBECDBF19A2423008F44AE0A2
:101970008E010F5D1F4F842E912CA12CB12CA5013F
:1019800094010E945616E62FB901CA0101501109AF
:10199000EA3014F4E05D01C0E95CD801EC93232B3C
:1019A000242B252B61F7C8010E94E60BA1960FB6E8
:1019B000F894DEBF0FBECDBFDF91CF911F910F9185
:1019C000BF90AF909F908F900895CF93DF93682F33
:1019D00070E080E090E04AE00E94A40CEC018EE40C
:1019E00092E00E94E60B8C0F9D1FDF91CF9108952E
:1019F000CF93DF93EB0190913C0421E02093CD0243
:101A00009093EF021092CE021092F002682F85EDB3
:101A100093E00E94DA02813061F441E050E0BE01BF
:101A200085ED93E00E94AD0281E0DF91CF910C94AF
:101A3000480C8FEFDF91CF910895CF93DF93282F3C
:101A400030E0F901E050FD4F8491F901E654FD4F7B
:101A5000D491F901EC58FD4FC491CC2391F0811140
:101A60000E946B0BEC2FF0E0EE0FFF1FE65AFD4FCC
:101A7000A591B491EC91ED2381E090E021F480E018
:101A800002C080E090E0DF91CF9108951F93CF9343
:101A9000DF93282F30E0F901E050FD4F8491F901E8
:101AA000E654FD4FD491F901EC58FD4FC491CC237D
:101AB000C1F0162F81110E946B0BEC2FF0E0EE0F9E
:101AC000FF1FE05CFD4FA591B4919FB7F8941111F1
:101AD00004C08C91D095D82302C0EC91DE2BDC930E
:101AE0009FBFDF91CF911F9108951092CC02109269
:101AF000CB021092CE021092F0021092370381E0D6
:101B0000809336031092310361E084E10E94460D18
:101B100061E085E10E94460DE9EBF0E080818E7F77
:101B2000808380818D7F808388E48093B80085E402
:101B30008093BC008FE792E09093CA028093C90221
:101B400080E892E09093C8028093C7020895CF93F3
:101B5000DF9390E0FC01E654FD4F2491FC01EC582A
:101B6000FD4F8491882361F190E0880F991FFC015B
:101B7000EA5DFD4FC591D491FC01E05CFD4FA5915C
:101B8000B491611109C09FB7F89488812095822390
:101B90008883EC912E230BC0623061F49FB7F894D8
:101BA0008881322F309583238883EC912E2B2C93C0
:101BB0009FBF06C08FB7F894E8812E2B28838FBF74
:101BC000DF91CF9108951F93CF93DF93182FEB01EF
:101BD00061E00E94A70D209711F460E004C0CF3FA0
:101BE000D10539F461E0812FDF91CF911F910C94E1
:101BF000460DE12FF0E0E050FD4FE4918E2F90E094
:101C0000FC013197E231F10508F09DC08827EC57BF
:101C1000FF4F8F4F0C94971684B5806884BDC7BD65
:101C200097C084B5806284BDC8BD92C08091800099
:101C3000806880938000D0938900C093880088C01A
:101C400080918000806280938000D0938B00C0934D
:101C50008A007EC080918000886080938000D0934D
:101C60008D00C0938C0074C08091B0008068809318
:101C7000B000C093B3006CC08091B00080628093CC
:101C8000B000C093B40064C08091900080688093DD
:101C90009000D0939900C09398005AC08091900012
:101CA000806280939000D0939B00C0939A0050C0B4
:101CB00080919000886080939000D0939D00C093A5
:101CC0009C0046C08091A00080688093A000809115
:101CD000A0008F7B8093A000D093A900C093A800A0
:101CE00037C08091A00080628093A000D093AB00A9
:101CF000C093AA002DC08091A00088608093A000AE
:101D0000D093AD00C093AC0023C0809120018068C7
:101D100080932001D0932901C093280119C080919C
:101D20002001806280932001D0932B01C0932A016F
:101D30000FC080912001886080932001D0932D01F5
:101D4000C0932C0105C0C038D1050CF04BCF45CF56
:101D5000DF91CF911F9108958F929F92AF92BF9282
:101D6000CF92DF92EF92FF926B017C010E94C10B38
:101D70004B015C01C114D104E104F104F1F00E94B3
:101D8000C10BDC01CB0188199909AA09BB09883E5E
:101D90009340A105B10570F321E0C21AD108E10812
:101DA000F10888EE880E83E0981EA11CB11CC114B6
:101DB000D104E104F10419F7DDCFFF90EF90DF903B
:101DC000CF90BF90AF909F908F9008952FB7F894C9
:101DD0006091BF027091C0028091C1029091C202D5
:101DE0002FBF0895CF92DF92EF92FF920F931F9330
:101DF000CF93DF936C017A018B01C0E0D0E0CE1568
:101E0000DF0581F0D8016D918D01D601ED91FC9136
:101E10000190F081E02DC6011995892B11F02196D2
:101E2000EECF7E01C701DF91CF911F910F91FF90FF
:101E3000EF90DF90CF9008950E942C1A88E393E0F2
:101E40000E94080221E0892B09F420E0822F0895E6
:101E50001F920F920FB60F9211242F933F938F93DF
:101E60009F93AF93BF938091BF029091C002A091C6
:101E7000C102B091C2023091D00423E0230F2D376C
:101E800020F40196A11DB11D05C026E8230F02967E
:101E9000A11DB11D2093D0048093BF029093C00276
:101EA000A093C102B093C2028091C3029091C40278
:101EB000A091C502B091C6020196A11DB11D8093EB
:101EC000C3029093C402A093C502B093C602BF910F
:101ED000AF919F918F913F912F910F900FBE0F90D7
:101EE0001F9018951F920F920FB60F9211240BB6E8
:101EF0000F922F933F934F935F936F937F938F93A3
:101F00009F93AF93BF93EF93FF9388E393E00E9477
:101F10008C03FF91EF91BF91AF919F918F917F9132
:101F20006F915F914F913F912F910F900BBE0F904A
:101F30000FBE0F901F9018951F920F920FB60F9221
:101F400011240BB60F922F938F939F93EF93FF93D0
:101F5000E0914803F09149038081E0914E03F091B4
:101F60004F0382FD12C09081809151038F5F8F7368
:101F700020915203821751F0E0915103F0E0E85CA8
:101F8000FC4F958F8093510301C08081FF91EF91A9
:101F90009F918F912F910F900BBE0F900FBE0F90BE
:101FA0001F901895CF92DF92EF92FF920F931F939D
:101FB000E82FF92F05C0015011092109310961F1FC
:101FC000908196239417B9F305C001501109210996
:101FD000310911F1908196239413F7CFC12CD12CA4
:101FE000E12CF12C0AC08FEFC81AD80AE80AF80AC7
:101FF0000C151D052E053F0579F080818623841779
:1020000091F36C2D7D2D8E2D9F2D1F910F91FF90A3
:10201000EF90DF90CF90089560E070E080E090E076
:102020001F910F91FF90EF90DF90CF900895CF9385
:10203000DF93EC0170E0FB01EE0FFF1FDF01A60F45
:10204000B71FA050BE4F12968C9195EF980F92300B
:1020500038F481E0809380008BE0809381002CC075
:1020600097EF980F923038F483E08093B00084E0CB
:102070008093B10021C0853021F09EEF980F9230FF
:1020800038F481E0809390008BE08093910014C03D
:102090009AEF980F933038F481E08093A0008BE0A2
:1020A0008093A10009C08C52833030F481E080938A
:1020B00020018BE0809321016E0F7F1FFB01E05018
:1020C000FE4F808188838181898382818A83888190
:1020D00061E00E94A70D898161E0DF91CF910C94AE
:1020E000A70DEF92FF921F93CF93DF93CDB7DEB78B
:1020F000E7970FB6F894DEBF0FBECDBFE8E3F3E07D
:102100001382128288EE93E0A0E0B0E0848395838E
:10211000A683B7832EE232E03183208325EC30E0C2
:102120003587248724EC30E03787268720EC30E0A1
:10213000318B208B21EC30E0338B228B22EC30E092
:10214000358B248B26EC30E0378B268B118E128E4C
:10215000138E148EE5EDF3E013821282848395834F
:10216000A683B78380E492E091838083EEE4F4E079
:102170008CE380838DE3818314E012836AE08BEC2F
:1021800094E00E94171069E086EC94E00E9417101A
:102190006BE081EC94E00E941710EBEBF4E080E13F
:1021A000808381E1818385E08283EAEAF4E080E450
:1021B000808381E4818387E0828388E38483EDE305
:1021C000F4E093E4908392E4918398E09283848393
:1021D0002AEF33E08EE3F90180838FE3818386E089
:1021E000828388E680933C0485E0EBECF4E0DE013A
:1021F000999601900D928A95E1F785E0E6ECF4E07E
:10220000DE019E9601900D928A95E1F785E0FE0130
:10221000B996AAE9B4E001900D928A95E1F785E0BC
:10222000FE01BE96AFE9B4E001900D928A95E1F708
:1022300040E954E0FA011082118212821382148262
:102240001582168217828AE994E09187808761E17E
:10225000EDE3F4E0DE01119601900D926A95E1F74D
:1022600061E1FE013196AFE7B4E001900D926A950D
:10227000E1F761E1EAEAF4E0DE01529601900D92A5
:102280006A95E1F761E1FE017296A9E6B4E001907A
:102290000D926A95E1F768E6E62E64E0F62EF70106
:1022A000938B828B65E0E1ECF4E0DE01D396019044
:1022B0000D926A95E1F761E0609380006BE06093B6
:1022C000810063E06093B0001093B10065E0FE010F
:1022D000F396AFEEB3E001900D926A95E1F76DEEE3
:1022E00073E0FB01308727839183808316E0EBEB5B
:1022F000F4E0DE01939601900D921A95E1F716E055
:10230000FE01B396A0E6B4E001900D921A95E1F7B4
:10231000ACE5B4E01B969C938E931A97E1EEF3E044
:102320003183208393838283B583A4835783468339
:1023300071876087F386E286E7960FB6F894DEBF72
:102340000FBECDBFDF91CF911F91FF90EF90089509
:10235000CF93DF93CDB7DEB727970FB6F894DEBFE4
:102360000FBECDBF789484B5826084BD84B5816092
:1023700084BD85B5826085BD85B5816085BD809150
:102380006E00816080936E001092810080918100C8
:1023900082608093810080918100816080938100C0
:1023A000809180008160809380008091B100846082
:1023B0008093B1008091B00081608093B0008091E3
:1023C0009100826080939100809191008160809360
:1023D0009100809190008160809390008091A10095
:1023E00082608093A1008091A10081608093A10010
:1023F0008091A00081608093A00080912101826083
:10240000809321018091210181608093210180913D
:10241000200181608093200180917A008460809304
:102420007A0080917A00826080937A0080917A00AD
:10243000816080937A0080917A00806880937A002E
:102440001092C100E0914803F091490382E080833B
:10245000E0914403F09145031082E0914603F0912E
:1024600047038FEC808310925003E0914C03F0916E
:102470004D0386E08083E0914A03F0914B03808115
:1024800080618083E0914A03F0914B0380818860F2
:102490008083E0914A03F0914B03808180688083C0
:1024A000E0914A03F0914B0380818F7D808380E02F
:1024B00090E0A3E8B2E48093000490930104A09319
:1024C0000204B093030410920404109205041092C5
:1024D0000604109207041092080410920904109246
:1024E0000A0410920B0410920C0410920D04109226
:1024F0000E0410920F041092100410921104109206
:1025000012041092130410921404109215041092E5
:1025100016041092170410921804109219041092C5
:102520001A0410921B0410921D0410921C041092A5
:102530001F0410921E041092210410922004109285
:102540002204109223041092240410922504109265
:102550002604109227041092280410922904109245
:102560002A0410922B0410922C0410922D040E9425
:10257000750D68EC70E080E090E00E94AC0E19826E
:10258000BE016F5F7F4F8BE60E94F80C64E670E03F
:1025900080E090E00E94AC0E81E08A83BE016E5F15
:1025A0007F4F8AE10E94F80C88E08B83BE016D5F4B
:1025B0007F4F8BE10E94F80C64E670E080E090E0D1
:1025C0000E94AC0E04EF11E01C821D821E821F824D
:1025D000812C912C5401412C512C320126E04EE2E9
:1025E00054E063E48AEF93E00E94BC0580912E04DE
:1025F00090912F04982789279827092E000CAA0B61
:10260000BB0B480E591E6A1E7B1E809130049091B0
:102610003104982789279827092E000CAA0BBB0B99
:10262000880E991EAA1EBB1E80913204909133041D
:10263000982789279827092E000CAA0BBB0B2C8101
:102640003D814E815F81280F391F4A1F5B1F2C83FC
:102650003D834E835F830150110909F0BFCF24EF02
:10266000C22EDD24D394E12CF12CC301B201A701C9
:1026700096010E947816CA01B9010E942D18609334
:102680002204709323048093240490932504C501AD
:10269000B401A70196010E947816CA01B9010E94EF
:1026A0002D18609326047093270480932804909338
:1026B00029046C817D818E819F81A70196010E94F2
:1026C0007816CA01B9010E942D1860932A047093EC
:1026D0002B0480932C0490932D048DE394E00E94AE
:1026E0004D0860ED77E080E090E00E94AC0E0E9423
:1026F000E60E8DEE93E00E94C10A8DEE93E00E94FB
:10270000140B912C88248394772473940091E5030F
:102710001091E60360E0D80114968C910E94A70DF9
:10272000F80184810E941D0D7C0160E0D80115969E
:102730008C910E94A70DF80185810E941D0DAC01AE
:1027400021E030E0EF2811F420E030E0220F331FC9
:1027500091E0452B09F490E0292B822F022E000CEA
:10276000990BD80111969C938E931A968D919C91FA
:102770001B97223079F02330E1F02130D1F468ED5D
:102780007FEF0E945F05F8018285938568ED7FEFFA
:1027900005960CC068E270E005960E945F0568E24D
:1027A00070E0D8011A968D919C911B970E945F054D
:1027B00004C068E270E00E94680AE090E703F090CD
:1027C000E8030E94E60EF70164837583868397838E
:1027D0000081118122813381DC01CB01801B910BAF
:1027E000A20BB30B84369105A105B10508F4C6C050
:1027F0000E94E60ED7016D937D938D939C93139762
:10280000F70114821582168217820E94E60E00914B
:102810005404109155042091560430915704DC0162
:10282000CB01801B910BA20BB30B4897A105B105FF
:1028300010F08092530480915304882309F460C0FF
:102840000E94E60E609354047093550480935604DE
:10285000909357041092530460E08EE494E00E9439
:102860004F0583E090E00197F1F761E08EE494E09A
:102870000E944F0583E290E00197F1F760E08EE45B
:1028800094E00E944F0560E080914F040E94A70DE4
:1028900080914F0490E0FC01E654FD4F6491FC01EF
:1028A000EC58FD4FE491F0E0EE0FFF1FE65AFD4FAC
:1028B0008591949100E412E42FE030E0462F0E94CD
:1028C000D20F611571058105910551F02B013C0175
:1028D000FFEF4F1A5F0A6F0A7F0A2FE0722203C0D0
:1028E000412C512C3201C301B2010E942D1860937A
:1028F00058047093590480935A0490935B040CC05D
:10290000609158047091590480915A0490915B042D
:102910000E94F5172B013C01C301B2010E942D1842
:1029200020E030E048E652E40E9483175B016C012E
:1029300020E030E048EC53E40E945C1987FF24C09B
:1029400045284628472801F120E030E040EA50E4DD
:10295000C601B5010E947E171816B4F060E070E061
:10296000D70118968D919C9119970E94680A8FE55E
:1029700092E00E94F80B7724739407C0F701148249
:1029800015821682178201C0712C872D90E0A0E07D
:10299000B0E04AE0BC01CD010E94A40C8EE492E0BC
:1029A0000E94E60B772009F4B1CE85E692E00E9402
:1029B000F80B0091E9031091EA0360E070E0D801A0
:1029C0008D919C910E94680AF801878190850E94F0
:1029D0001406D8011796ED91FC91189746845784F8
:1029E00060887188F8014186528663867486A301E7
:1029F0009201C301B2010E94201A882319F08BE6CC
:102A000092E01AC073016201E894F7F82FEF3FEFEC
:102A10004FE75FE7C701B6010E94201A81110FC07E
:102A20002FEF3FEF4FE75FE7C701B6010E947E1728
:102A300018162CF48FE692E00E94E60B76C02FEF7A
:102A40003FEF4FE75FE4C301B2010E945C19181623
:102A50001CF483E792E0F0CF2FEF3FEF4FE75FECFE
:102A6000C301B2010E947E1787FDF3CF20E030E062
:102A7000A901C301B2010E947E1787FF09C06DE260
:102A800088E393E00E94AE0377FA709477F870942D
:102A90002AE037ED43EA5BE3C301B2010E94A016CE
:102AA0006B017C010E94FC172B013C010E942B183A
:102AB0009B01AC01C701B6010E949F166B017C010E
:102AC0004AE0C301B2010E94A40C6EE288E393E0E5
:102AD0000E94AE0320E030E040E251E4C701B601BD
:102AE0000E9469196B017C010E94FC172B01612C6B
:102AF000712C4AE0C301B2010E94A40CC301B201CF
:102B00000E942B189B01AC01C701B6010E949F16C1
:102B100020E030E040E251E40E9469190E94FC1775
:102B200080E090E04AE00E94A40C8EE492E00E94D3
:102B3000E60B98012E5F3F4F790120E030E046E040
:102B400052ECD80119966D917D918D919C911C97B5
:102B50000E947E1787FF1FC06EEC7FEFC7010E94A7
:102B60005F056AE070E080E090E00E94AC0EF80142
:102B7000878190850E941406D8011796ED91FC91EB
:102B8000189786859785A089B189F80181879287F2
:102B9000A387B487D2CF20E030E04CEF51ECD801CE
:102BA00019966D917D918D919C911C970E945C1955
:102BB0001816FCF462E370E0C7010E945F056AE04A
:102BC00070E080E090E00E94AC0EF8018781908573
:102BD0000E941406D8011796ED91FC9118978685EE
:102BE0009785A089B189F80181879287A387B487E7
:102BF000D2CF60E070E0C7010E945F058091EB03D7
:102C00009091EC030E94800A182F0E94E50C131586
:102C100059F0992041F08091EB039091EC030E94D0
:102C2000800A182FF4CF312E832D0E94E50C6DED14
:102C30007FEF8091E3039091E4030E94680A60EDC6
:102C400077E080E090E00E94AC0E8091E9039091E3
:102C5000EA030E94C10A63E270E08091E30390916D
:102C6000E4030E94680A6AE872E080E090E00E9453
:102C7000AC0E8091E9039091EA030E94140B992411
:102C8000939442CDAA1BBB1B51E107C0AA1FBB1FD7
:102C9000A617B70710F0A61BB70B881F991F5A95E8
:102CA000A9F780959095BC01CD010895A1E21A2E57
:102CB000AA1BBB1BFD010DC0AA1FBB1FEE1FFF1FE0
:102CC000A217B307E407F50720F0A21BB30BE40B30
:102CD000F50B661F771F881F991F1A9469F7609577
:102CE0007095809590959B01AC01BD01CF01089531
:102CF000052E97FB1EF400940E948F1657FD07D0F7
:102D00000E94561607FC03D04EF40C948F16509573
:102D10004095309521953F4F4F4F5F4F08959095C7
:102D20008095709561957F4F8F4F9F4F0895EE0F5F
:102D3000FF1F881F8BBF0790F691E02D1994505804
:102D4000BB27AA270E94B7160C940A190E94FC18E8
:102D500038F00E94031920F039F49F3F19F426F44B
:102D60000C94D2180EF4E095E7FB0C94A318E92F0D
:102D70000E941B1958F3BA17620773078407950757
:102D800020F079F4A6F50C9455190EF4E0950B2E6D
:102D9000BA2FA02D0B01B90190010C01CA01A001AD
:102DA0001124FF27591B99F0593F50F4503E68F108
:102DB0001A16F040A22F232F342F4427585FF3CF49
:102DC000469537952795A795F0405395C9F77EF41A
:102DD0001F16BA0B620B730B840BBAF09150A1F063
:102DE000FF0FBB1F661F771F881FC2F70EC0BA0FE9
:102DF000621F731F841F48F4879577956795B79571
:102E0000F7959E3F08F0B0CF9395880F08F099276B
:102E1000EE0F9795879508950E94FC1860F080E862
:102E200091E009F49EEF0E94031928F040E851E078
:102E300071F45EEF0CC00C94D2180C945519E92F64
:102E4000E0780E941B1940F3092E052AB1F32617DA
:102E500037074807590738F00E2E07F8E02569F0C4
:102E6000E025E0640AC0EF6307F8009407FADB018D
:102E7000B9019D01DC01CA01AD01EF930E949A17CF
:102E80000E940A190E944F175F91552339F02BEDCC
:102E90003FE049E450FD49EC0C94A0160895DF93FF
:102EA000DD27B92FBF7740E85FE3161617064807FE
:102EB0005B0718F4D92F0E9461199F938F937F931A
:102EC0006F930E941C1AECE2F1E00E94D5180E9458
:102ED0000A192F913F914F915F910E947C19DD2338
:102EE00051F09058A2EA2AED3FE049EC5FE3D07838
:102EF0005D270E94B716DF910C940A190E947F1873
:102F000008F481E008950E9497170C940A190E9412
:102F1000031958F00E94FC1840F029F45F3F29F093
:102F20000C94A31851110C9456190C94D2180E94A9
:102F30001B1968F39923B1F3552391F3951B550B96
:102F4000BB27AA2762177307840738F09F5F5F4F7C
:102F5000220F331F441FAA1FA9F335D00E2E3AF0BB
:102F6000E0E832D091505040E695001CCAF72BD0D3
:102F7000FE2F29D0660F771F881FBB1F2617370724
:102F80004807AB07B0E809F0BB0B802DBF01FF2756
:102F900093585F4F3AF09E3F510578F00C94A31878
:102FA0000C9456195F3FE4F3983ED4F386957795D9
:102FB0006795B795F7959F5FC9F7880F911D96950F
:102FC000879597F90895E1E0660F771F881FBB1F6B
:102FD000621773078407BA0720F0621B730B840B18
:102FE000BA0BEE1F88F7E09508950E94FC176894CD
:102FF000B1110C94561908950E94231988F09F5717
:1030000098F0B92F9927B751B0F0E1F0660F771F0C
:10301000881F991F1AF0BA95C9F714C0B13091F002
:103020000E945519B1E008950C945519672F782F17
:103030008827B85F39F0B93FCCF3869577956795C7
:10304000B395D9F73EF490958095709561957F4F33
:103050008F4F9F4F0895E89409C097FB3EF49095D9
:103060008095709561957F4F8F4F9F4F9923A9F061
:10307000F92F96E9BB279395F695879577956795F0
:10308000B795F111F8CFFAF4BB0F11F460FF1BC034
:103090006F5F7F4F8F4F9F4F16C0882311F096E9C7
:1030A00011C0772321F09EE8872F762F05C0662375
:1030B00071F096E8862F70E060E02AF09A95660F2E
:1030C000771F881FDAF7880F9695879597F90895E7
:1030D0000E943D1990F09F3748F4911116F00C941E
:1030E000561960E070E080E89FEB089526F41B1607
:1030F000611D711D811D0C94A9180C94C418990FA1
:103100000008550FAA0BE0E8FEEF16161706E807B1
:10311000F907C0F012161306E407F50798F0621BD2
:10312000730B840B950B39F40A2661F0232B242BA7
:10313000252B21F408950A2609F4A140A6958FEFC6
:10314000811D811D089597F99F6780E870E060E018
:103150000895882371F4772321F09850872B762FD8
:1031600007C0662311F499270DC09051862B70E09B
:1031700060E02AF09A95660F771F881FDAF7880FAC
:103180009695879597F908959F3F31F0915020F4D7
:10319000879577956795B795880F911D9695879533
:1031A00097F908959FEF80EC0895DF93CF931F93D5
:1031B0000F93FF92EF92DF927B018C01689406C01F
:1031C000DA2EEF010E947C19FE01E894A591259169
:1031D000359145915591A6F3EF010E94B716FE0176
:1031E0009701A801DA9469F7DF90EF90FF900F91B3
:1031F0001F91CF91DF91089500240A9416161706A7
:1032000018060906089500240A94121613061406D7
:1032100005060895092E0394000C11F4882352F03A
:10322000BB0F40F4BF2B11F460FF04C06F5F7F4FF2
:103230008F4F9F4F089557FD9058440F551F59F0D9
:103240005F3F71F04795880F97FB991F61F09F3F93
:1032500079F087950895121613061406551FF2CFBC
:103260004695F1DF08C0161617061806991FF1CF0C
:10327000869571056105089408950E942319A0F0B0
:10328000BEE7B91788F4BB279F3860F41616B11D46
:10329000672F782F8827985FF7CF86957795679562
:1032A000B11D93959639C8F30895E894BB27662716
:1032B0007727CB0197F908950E947F1808F48FEFC4
:1032C00008959B01AC0160E070E080E89FE30C94FE
:1032D00083170E947C190C940A190E94FC1838F07C
:1032E0000E94031920F0952311F00C94A3180C945C
:1032F000D21811240C9456190E941B1970F3959F33
:10330000C1F3950F50E0551F629FF001729FBB27DC
:10331000F00DB11D639FAA27F00DB11DAA1F649F78
:103320006627B00DA11D661F829F2227B00DA11D2B
:10333000621F739FB00DA11D621F839FA00D611DB1
:10334000221F749F3327A00D611D231F849F600DD2
:10335000211D822F762F6A2F11249F5750409AF0FB
:10336000F1F088234AF0EE0FFF1FBB1F661F771F87
:10337000881F91505040A9F79E3F510580F00C9452
:10338000A3180C9456195F3FE4F3983ED4F3869546
:1033900077956795B795F795E7959F5FC1F7FE2BF2
:1033A000880F911D9695879597F9089519F416F44D
:1033B0000C94D2180C94C4180E942319B8F39923C2
:1033C000C9F3B6F39F57550B87FF0E94251A0024B7
:1033D000A0E640EA900180585695979528F4805CC5
:1033E000660F771F881F20F026173707480730F42D
:1033F000621B730B840B202931294A2BA695179445
:103400000794202531254A2758F7660F771F881F14
:1034100020F026173707480730F4620B730B840B34
:10342000200D311D411DA09581F7B901842F9158C0
:10343000880F9695879508959B01AC010C946919A6
:103440000E947F18880B990B089591505040660F89
:10345000771F881FD2F7089581E090E0F8940C94CC
:06346000311AF894FFCFC1
:1034660000000021200B2829072F300639380400D8
:10347600000000000000000000000023220C2425AC
:10348600082A2B093B3A0500000000000000AE03A5
:10349600F20ED701FB030802E601FA010000000064
:1034A600DA02AD020A038102A502910282020D0A26
:1034B60000636F756C6575723A006F6B6F6B0063B6
:1034C60061707465007069656365006E616E0069A0
:0834D6006E66006F76660000CF
:00000001FF
